:020000040800F2
:100000001015002045010008554300080739000875
:10001000A142000881120008E1530008000000001E
:100020000000000000000000000000005701000870
:100030005D170008000000005B010008414C00084B
:100040005F0100085F0100085F0100085F01000810
:100050005F0100085F0100085F0100085F01000800
:100060005F0100085F0100085F0100085F010008F0
:100070005F0100085F0100085F0100085F010008E0
:100080005F0100085F0100085F0100085F010008D0
:100090005F0100085F0100085F0100085F010008C0
:1000A0005F0100085F0100085F010008F54C0008CF
:1000B0005F0100085F0100085F0100085F010008A0
:1000C0005F0100085F0100085F010008F5430008B8
:1000D0005F010008D55300085F0100085F010008B8
:1000E0005F0100085F0100085F0100085F01000870
:1000F0005F0100085F0100085F0100085F01000860
:100100005F0100085F0100085F0100085F0100084F
:100110005F0100085F0100085F0100085F0100083F
:100120005F0100085F0100085F0100085F0100082F
:10013000DFF80CD000F02CFB00480047D15C000831
:10014000101500200648804706480047FEE7FEE7F6
:10015000FEE7FEE7FEE7FEE7FEE7FEE7FEE7FEE777
:10016000AD4C000831010008202A04DB203A21FAB6
:1001700002F00021704721FA02F3D040C2F12002C0
:10018000914008431946704740EA01039B0703D09A
:1001900009E008C9121F08C0042AFAD203E011F8C6
:1001A000013B00F8013B521EF9D27047421C10F887
:1001B000011B0029FBD1801A704770B521F0004364
:1001C00003430CD0C1F30A550024D5EB040564EBBE
:1001D0000403D617AD1AB34102DB0020014670BDFF
:1001E000201841EB025170BD0EB5C10F80EAE070DE
:1001F0000844CA07002140F233438DE80E000A4646
:100200000B4600F0BEF803B000BD00F0004230F035
:1002100000400AD0C10D01F56071C0F3160042EA3A
:100220000151C20840071143704700200146704742
:1002300001F0004330B421F0004150EA010206D041
:100240000A0DA2F56072C1F31301002A02DC30BC72
:1002500000207047440F44EAC104C100E01830BCDC
:1002600000EBC25000F047B830B50B460146002005
:100270002022012409E021FA02F59D4205D303FA68
:1002800002F5491B04FA02F52844151EA2F10102E9
:10029000F1DC30BD2DE9F05F0546002092469B461B
:1002A00088460646814640241BE02846414647468C
:1002B0002246FFF759FF53465A46C01A914110D3C0
:1002C00011461846224600F075FA2D1A67EB010810
:1002D0004F4622460120002100F06CFA17EB00097E
:1002E0004E41201EA4F10104DFDC484631462A4677
:1002F0004346BDE8F09F0029A8BF7047401C490055
:1003000008BF20F00100704710B4B0FA80FC00FA7A
:100310000CF050EA010404BF10BC704749B1CCF1A5
:10032000200421FA04F411FA0CF118BF0121214331
:100330000843A3EB0C01CB1D4FEA00614FEA1020EC
:1003400042BF002010BC704700EBC350104400298E
:10035000A4BF10BC7047401C490008BF20F001003A
:1003600010BC704710B5141E73F1000408DA401C6D
:1003700041F1000192185B411A4301D120F00100C4
:1003800010BD2DE9F04D92469B4611B1B1FA81F2B4
:1003900002E0B0FA80F22032904600F00BFA0446F8
:1003A0000F4640EA0A0041EA0B0153465A46084309
:1003B00013D0114653EA010019D0C8F1400250464B
:1003C000FFF7D2FE05460E4650465946424600F01B
:1003D000F1F9084305D0012004E020463946BDE884
:1003E000F08D0020054346EAE0762C4337430A9817
:1003F0006305E40AA0EB08000022FD0A44EA475422
:100400000A3002D500200146E9E7010510196941CB
:10041000DDE9084500196941BDE8F04DA2E72DE985
:10042000FE4F804681EA0300C00F0C46009021F089
:10043000004123F00045B8EB0200A94105D2404637
:10044000214690461C460B46024623F000401043CE
:1004500047D0270DC7F30A00C3F30A510290401A90
:10046000019040286BDAC3F3130040F4801B00981E
:10047000924620B10023D2EB030A63EB0B0B0198E9
:100480005946C0F14002504600F094F906460D4628
:1004900050465946019A00F09CF910EB0800614162
:1004A000002487EA115284EAE7731A4340D0009A85
:1004B00062B3019A012A4FEA075215DC001B61EB77
:1004C00002014FF0004202EA0752CDE90042001C4F
:1004D00041F5801132462B46FFF753FF03B0BDE8CC
:1004E000F08F40462146F9E7001B61EB0201001C3A
:1004F00041F5801300185B412018A2F5001747EB67
:10050000030140EAD570B6196D4111E06D084FEA5C
:10051000360645EAC0754FEA0752001B61EB02013F
:10052000001C41F5801149084FEA30000019514183
:1005300032462B4603B0BDE8F04FFFF713BF0098DB
:10054000012240000023D0EB020263EBE07300982D
:1005500021464FEAE074B8EB000061EB0401E9E7E3
:1005600083F000435BE781F0004158E72DE9FE4F3F
:1005700081EA030404F0004421F0004100944FF0AC
:10058000000B23F0004350EA01045ED052EA03045A
:100590005BD0C3F30A54C1F30A552C44A4F2F334DC
:1005A0000194A0FB0254C1F3130141F48011C3F381
:1005B000130343F4801301FB024400FB034E840A3F
:1005C000970A44EA815447EA8357A4FB07680295D7
:1005D0008D0A05FB07854FEA932C04FB0C54270575
:1005E000029D4FEA065847EA1637B5EB08056EEB51
:1005F000070C870E920E47EA811742EA8312A7FB87
:100600000201B6EB0B0164EB00042B0D43EA0C3343
:100610005E1844EB1C50DA465146E7FB0201C5F375
:1006200013044FEA0B3343EA14534FEA0432019C9C
:1006300043EA0603A4F10C040294009CCDE900B443
:10064000FFF79FFE03B0BDE8F08F00200146F9E7F9
:100650002DE9F04D81EA030404F0004B21F0004540
:1006600014464FF0000A23F0004150EA050220D062
:1006700054EA01021DD0C5F30A570246C5F313031D
:10068000C1F31300C1F30A5640F4801543F48013FC
:10069000A7EB0608101BD64608F2FD3873EB0500E1
:1006A00002D308F1010801E092185B41B8F1000F94
:1006B00003DA00200146BDE8F08D00204FF48011E0
:1006C000064684460EE0171B73EB050705D3121B85
:1006D00063EB050306434CEA010C49084FEA30007E
:1006E00092185B4150EA0107EDD152EA030012D0A3
:1006F00082EA040083EA0501084305D0101BAB41E0
:1007000006D20122002306E000224FF0004302E05F
:100710006FF0010253101AEB06004CEB085110EB7E
:100720000A0041EB0B01BDE8F04DFFF71BBEC1F322
:100730000A52C1F3130140F2FF3341F480119A428F
:1007400002DA00200146704740F233439A42A2F297
:10075000334202DC5242FFF707BD00F02BB8000025
:1007600030B5041E71F1000404DB4FF00044404238
:1007700064EB0101141E73F1000405DB1C464FF00D
:100780000043524263EB0403994208BF904230BDDC
:10079000064C074D06E0E06840F0010394E80700CE
:1007A00098471034AC42F6D3FFF7C6FCC45F00088C
:1007B000E45F0008202A04DB203A00FA02F100205E
:1007C00070479140C2F1200320FA03F3194390408F
:1007D0007047202A06DBCB17203A41FA02F043EAA1
:1007E000E07306E041FA02F3D040C2F120029140EA
:1007F00008431946704700002DE9F84FDFF8E0C3C1
:10080000002463469CF802209879F64FF64DDFF8F5
:10081000DCB3F74E5B794FF0010A4FF480414FF49F
:1008200080584FF40069B02A7ED03BDC822A7CD00D
:1008300026DC022A7AD0332A79D1E0460B2876D1F9
:100840000122384601F01FFA8BF8004085F800A01D
:1008500034706C70E74B98F80300187098F8041027
:10086000597098F805209A70E34B1B8804F0C0F883
:10087000642001F0EDF8BDE8F84FE0A004F0B2BD4F
:10088000902A7DD0A02A52D10B2850D16C703470A0
:1008900004F050F9DDA004F0A5FDBDE8F84F642098
:1008A00001F0D6B8C02A6CD0D02A6BD0EE2A6AD01C
:1008B000FF2A3CD10B283AD16C703470642001F0CF
:1008C000C7F800224146384601F0DDF900224946CA
:1008D000384601F0D8F9C82001F0BAF801224146A3
:1008E000384601F0D0F901224946384601F0CBF9EB
:1008F000C82001F0ADF800224146384601F0C3F9A6
:1009000000224946384601F0BEF9C82001F0A0F89F
:1009100001224146384601F0B6F9012249463846DF
:1009200001F0B1F9C82003E06BE047E01EE09FE072
:1009300001F08EF800224146384601F0A4F9002269
:100940004946384601F09FF9C82001F081F801229C
:100950004146384601F097F901224946384601F0F0
:1009600092F9BDE8F84FC82001F072B8E0460B28B4
:100970007ED10122384601F086F985F800A003E017
:1009800055E0D9E002E17DE08BF8004034706C70F6
:10099000984B98F80300187098F80410597098F85C
:1009A00005209A70944B1B8800F08CFC642001F0A9
:1009B0004FF8BDE8F84F9BA004F014BDE0460B28AB
:1009C00056D10122384601F05EF98BF8004085F8D7
:1009D00000A06C703470874B98F80300187098F87A
:1009E0000410597098F805209A70834B1B8800F00A
:1009F00049FC642001F02CF8BDE8F84F8DA004F00C
:100A0000F1BC0B2803D10122384601F03CF98BF8E8
:100A1000004085F800A034706C7077480188002091
:100A200003F0B8FEBDE8F84F642001F011B80B28C0
:100A30001ED184499CF8040008714B71194600F0DE
:100A4000F9FC642001F004F81E2001F001F80122F5
:100A50004146384601F017F901224946384601F06F
:100A600012F91E2000F0F4FF00224146384600E053
:100A700087E001F008F949463846BDE8F84F002202
:100A800001F001B90B287CD16C7034706EA004F0B9
:100A9000A9FC642000F0DCFF00224146384601F04A
:100AA000F2F800224946384601F0EDF8C82000F07F
:100AB000CFFF01224146384601F0E5F801224946C0
:100AC000384601F0E0F8C82000F0C2FF002241469D
:100AD000384601F0D8F800224946384601F0D3F8EC
:100AE000C82000F0B5FF01224146384601F0CBF89E
:100AF00001224946384601F0C6F8C82000F0A8FF98
:100B000000224146384601F0BEF8002249463846E8
:100B100001F0B9F8C82000F09BFF01224146384699
:100B200001F0B1F801224946384601F0ACF8BDE8C1
:100B3000F84FC82000F08CBF0B284FD16C70347078
:100B400047480370007803F0CDFA00F049FF0C210C
:100B5000444802F027FC00224146384601F093F851
:100B600001224946384601F08EF80A2000F070FF55
:100B700001224146384601F086F8002249463846AF
:100B800000E02BE0BDE8F84F01F07DB80B2825D13F
:100B90006C70347000F07EFE642000F059FF01227A
:100BA0004146384601F06FF801224946384601F0C7
:100BB0006AF8642000F04CFF00224146384601F0FC
:100BC00062F800224946384601F05DF80A2000F03C
:100BD0003FFF25480068016840680090BDE8F88F35
:100BE00054010020000C01404C00002010000020A7
:100BF0000F000020140000202A000020307833333A
:100C0000206F72646572200A000000006E65772014
:100C10006F726967696E2070736F6974696F6E2097
:100C20000A00000030783032206F72646572200A4A
:100C30000000000030783832206F72646572200A3C
:100C4000000000005400002054686973206973207C
:100C500030786565206F72646572200A00000000BC
:100C600024000020F8010020B80100202DE9F04107
:100C700000F004FE01282DD10020174C0021215442
:100C8000401CC0B20428FAD304220521124800F007
:100C900039FE0A2000F0DCFE104861780170A1786E
:100CA0004170E1788170207802F088FE0546607816
:100CB00002F048FE0646A07802F062FE0746E078A1
:100CC00002F022FEA91939440144BDE8F04104A014
:100CD00004F088BBBDE8F0817C03002048000020C0
:100CE0004131207265616420454550524F4D20705E
:100CF0006F736974696F6E3D202564200A000000DF
:100D000005480168054881700A0A42700A0C0270A1
:100D100003A004F067BB00003C0000204800002056
:100D200041322072656164207265616C20706F735E
:100D30006974696F6E3D20256C64200A0000000014
:100D400010B500F09BFD012804D1022210210548B6
:100D500000F0D8FD034904484A7882700978417050
:100D600010BD00007C0300204800002010B517488B
:100D70000021174A8078174B01281AD0042809D07F
:100D8000E02821D151701970FFF770FFBDE81040C5
:100D900002F0C6BE5170197003F06EF90446214688
:100DA0000DA004F01FFB0F488470BDE8104002F056
:100DB000B7BE517019700CA004F014FBFFF7C0FF10
:100DC000BDE8104002F0ACBE10BD00005401002090
:100DD0004C0000200F000020425256203D20256488
:100DE000200A0000480000205350495F61527842B9
:100DF00075666665725B325D3D307830310A0000A1
:100E00002DE9FC5FFA480088FB4A4FF48056F94D03
:100E10007710DFF8E8B300245179C02879D040DC9E
:100E2000DFF8DC83DFF8DC93902873D022DCDFF876
:100E3000D8A34FF4804102286FD033286CD0822889
:100E40002DD10122584600F01EFF2C7088F800407A
:100E50009AF802209AF801109AF80000B9F80030C8
:100E600000F010FA35112946584600F005FF002819
:100E70007ED0A2E0A0287CD0B02810D12C7088F8B9
:100E80000040B9F80010002003F084FC4FF480719A
:100E9000584600F0F1FE002801D100F021FBBDE82A
:100EA000FC9FB0F5817F7DD00BDCD0287BD0FF2864
:100EB0007AD0A0F580700138F1D12C7003F05CFA83
:100EC000EDE7A0F5807003386FD00128E7D12C70D2
:100ED00003F0D2F80146CDA004F084FA0122314695
:100EE000584600F0D0FE01223946584600F0CBFEAD
:100EF000142000F0ADFD00223146584600F0C3FE3C
:100F000000223946584600F0BEFE142000F0A0FD35
:100F1000C5E727E1B7E000E074E00122584600F0A1
:100F2000B2FE2C7088F800409AF802209AF801105E
:100F30009AF80000B9F8003000F0C4F94FF4807559
:100F40002946584600F098FE08B900F0C9FA022078
:100F500000F07EFD2946584600F08EFE08B900F0EC
:100F6000BFFA01223146584600F08DFE002201E012
:100F700021E067E03946584600F085FE022000F087
:100F800067FD2946584600F077FE08B900F0A8FA38
:100F90002946584600F070FE08B900F0A1FA8AF818
:100FA000004003E040E101E18CE039E18AF80140D2
:100FB0008AF8024073E700F093FA022000F048FD3F
:100FC00000223146584600F05EFE0122394658465E
:100FD00000F059FE2946584600F04EFE08B900F0D0
:100FE0007FFA022000F034FD2946584600F044FE06
:100FF00008B900F075FA8AF800408AF801408AF8CA
:1010000002404CE70122584600F03DFE2C7088F863
:1010100000409AF802209AF801109AF80000B9F8F6
:10102000003003F0E5FC4FF48071584600F024FED8
:1010300008B900F055FA8AF800408AF801408AF8A9
:1010400002402CE72C7003F075FD1E2000F000FD1F
:1010500001223146584600F016FE01223946584614
:1010600000F011FE1E2000F0F3FC0022314658462D
:1010700000F009FE00223946584600F004FE0A201E
:1010800000F0E6FC0BE72C70107900F0D3F91E207D
:1010900000F0DEFC01223146584600F0F4FD01224A
:1010A0003946584600F0EFFD1E2000F0D1FC00222A
:1010B0003146584600F0E7FD00223946584600F018
:1010C000E2FDECE62C7000223146584600F0DBFDD4
:1010D00000223946584600F0D6FDC82000F0B8FC82
:1010E00001223146584600F0CEFD012239465846CD
:1010F00000F0C9FDC82000F0ABFC00223146584684
:1011000000F0C1FD00223946584600F0BCFDC82061
:1011100000F09EFC01223146584600F0B4FD012249
:101120003946584600F0AFFDC82000F091FC00227F
:101130003146584600F0A7FD00223946584600F0D7
:10114000A2FDC82000F084FC01223146584600F080
:101150009AFD01223946584600F095FDC82000F05E
:1011600077FC9CE62C702C480170007802F0BAFFE6
:1011700000F036FC0C21294802F014F90022314617
:10118000584600F080FD01223946584600F07BFDAC
:101190000A2000F05DFC01223146584600F073FD44
:1011A00000223946584600F06EFD78E62C7000F0BB
:1011B00071FB0A2000F04CFC01223146584600F039
:1011C00062FD01223946584600F05DFD0A2000F01C
:1011D0003FFC00223146584600F055FD00223946BA
:1011E000584600F050FD0A2000F032FC57E600009F
:1011F000120000200A00002054000020000C0140D2
:101200000B0000202A00002014000020425256202B
:101210003D202564200A000024000020F801002061
:101220002C7000F09DFA3AE62C70684600F08FF9B9
:10123000FEF7EBFF044602460E460B4608A004F0FC
:10124000D1F84FF47A75284600F002FC2246334666
:1012500003A004F0C7F8284600F0FAFB1FE60000E0
:10126000BBF1C8A1B8C3D0F2C1D0BAC5C6F7BCFEA5
:10127000B5C4CEC2B6C8A3BA252E31660A00000096
:10128000FEE7000070B51E46000440EA0125154344
:10129000094C2078002808D12320207000F046F85F
:1012A0000649086006490860606031462846BDE886
:1012B000704003F0ADBA00001C0000203C0000208C
:1012C0004000002070B51E46000440EA012414438B
:1012D000094D2878002808D12320287000F026F82E
:1012E0000649086006490860686031466042BDE80A
:1012F000704003F08DBA00001C0000203C0000206C
:101300004000002010B500F0B9FA012809D10222EE
:101310001021054800F0F6FA03484178007841EAC8
:101320000024204610BD00007C0300202DE9F04180
:1013300000F0A4FA01281ED1042205210F4800F074
:10134000E1FAC82000F084FB0C4C207802F036FB58
:101350000746607802F0F6FA0546A07802F010FB26
:101360000646E07802F0D0FA05490D704E7088709C
:10137000791931440C182046BDE8F0817C03002027
:10138000480000202DE9F04120480168CCB20168F6
:10139000C1F307250168C1F307460068070E00F096
:1013A0006DFA01282FD10020194B1A4900221A5436
:1013B0000A54401CC0B20428F9D30F704E708D70CF
:1013C000CC7004220521134800F0D1FA0446C8204D
:1013D00000F03EFB012C04D0BDE8F0410EA004F06B
:1013E00001B8134D4FF4006400222146284600F056
:1013F0004AFC0A2000F02CFB21462846BDE8F041BB
:10140000012200F040BCBDE8F08100003C0000205B
:101410007C0300207C020020656570726F6D206384
:101420006865636B206572726F72200A00000000AD
:10143000000C01402DE9F04106460F4600F01EFA6F
:10144000012844D1234C002020706070224D2E7062
:101450006F7002221021284600F089FA642000F003
:10146000F7FA02221021204600F04CFA00224FF435
:1014700000611A4E4F00A05CAB5C984209D000227C
:10148000304600F000FC00223946304600F0FBFBFD
:10149000FEE7521CD2B2022AEDD318D100220C462C
:1014A000304600F0F0FB00223946304600F0EBFBFE
:1014B000C82000F0CDFA01222146304600F0E3FBBF
:1014C00039463046BDE8F041012200F0DCBBBDE802
:1014D000F08100007C0300207C020020000C014011
:1014E00010B51149012008700021104801F0A4FE38
:1014F000002211460E4803F0D1FC0C496FF00200A7
:1015000009680861FFF73EFF0A4C00224FF4804152
:10151000204600F0B8FB00226114204600F0B3FB27
:10152000BDE8104000F01CB91C0000204002002063
:10153000002C0140000C014006E00021491CC9B20A
:101540000A29FBD3401E80B20028F6D1704770B53F
:10155000054600F038F80024285D00F0CDF8641C42
:10156000E4B2082CF8D3442000F0C6F800F02BF8C1
:101570000024285D00F0C0F8641CE4B2082CF8D305
:10158000BE2000F0B9F800F08FF8044600F08CF8A7
:10159000000200B220436FF0030400280ADAC043BF
:1015A000401CFEF721FE2246FEF707FEBDE8704014
:1015B000FEF73EBEFEF718FE2246FEF7FEFDBDE832
:1015C0007040FEF735BE10B500F07CF800F022F850
:1015D000BDE81040552000F08FB800001FB5022074
:1015E000009000200190012002906946014800F01F
:1015F0003BFA1FBD000801401FB5022000900120EA
:101600000190032003906946014800F02DFA1FBDA8
:101610000008014070B50024FFF7E0FF124D04E020
:10162000641CE4B20120FFF787FF0221284600F086
:1016300023FB08B1642CF3D3642C01D3012070BDCB
:10164000002404E0641CE4B20120FFF775FF0221CE
:10165000284600F011FB08B9F02CF3D3F02C01D38D
:10166000012070BD002070BD0008014010B5FFF7DB
:10167000C3FF0C4C00220221204600F004FB0A208C
:10168000FFF75AFFFFF7AAFF0221204600F0F4FA05
:10169000012805D000242D20FFF74EFF204610BD65
:1016A0000124F8E70008014070B500250024FFF789
:1016B000DDFFA0402843C5B2641CE4B2082CF6D379
:1016C000284670BD10B5FFF797FF0A4C0022022193
:1016D000204600F0D8FA40F2EE20FFF72DFF01225D
:1016E0000221204600F0CFFABDE810400F20FFF79E
:1016F00023BF00000008014070B50546FFF77CFFDE
:101700000024154E05F001006D0880B10022022171
:10171000304600F0B8FA0820FFF70EFF0122022140
:10172000304600F0B0FA3A20FFF706FF0FE0002243
:101730000221304600F0A7FA4620FFF7FDFE012205
:101740000221304600F09FFA0220FFF7F5FE641CEC
:10175000E4B2082CD6D370BD00080140FEE70000BB
:101760002DE9FC412DA003C8CDE900012D480168F9
:101770002D480278002A17D08DF804100A0A8DF837
:1017800003200A0C8DF80220446828A003F02AFEEA
:1017900021462CA003F026FE0C23062269462E4883
:1017A00002F044F8BDE8FC8100F068F80128F9D1A6
:1017B00000202A4C00212154401CC0B20428FAD336
:1017C00004220521254800F09DF8C82000F040F9CA
:1017D000E0788DF80400A0788DF8030060788DF82B
:1017E0000200207802F0EAF80546607802F0AAF8D4
:1017F0000646A07802F0C4F80746E07802F084F8C4
:10180000A9193944014416A003F0ECFD0C2306226B
:101810006946114802F00AF8C4E70000A10300007D
:10182000000B00003C0000201C0000207265616C71
:1018300020706F736974696F6E3D20256C64200A97
:1018400000000000737465705F6E756D6265727381
:101850003D202564200A0000B80100207C03002000
:10186000454550524F4D207265616C20706F736911
:1018700074696F6E3D20256C64200A0010B5A020AD
:1018800002F0DAF818B102F061FA002010BD012070
:1018900010BD000070B5FFF7F1FF012814D1002042
:1018A0001449154A00240C541454401C80B20A28D0
:1018B000F9D309220021104800F059F805460F48D5
:1018C0000460642000F0C4F8012D00D0FEE70C4D48
:1018D0004FF4006400222146284600F0D4F9142079
:1018E00000F0B6F821462846BDE87040012200F01D
:1018F000CAB900007C0300207C0200203C000020CC
:10190000000C01402DE9F04105460C46164602F058
:10191000FDF9A02002F0C8F902F030FA68B9E0B28F
:1019200002F0C2F902F02AFA38B902F0EFF9A12068
:1019300002F0BAF902F022FA20B102F007FA002010
:10194000BDE8F0810024771E0BE002F089F92855EC
:10195000BC4202D002F050F801E002F065F9641CCC
:10196000A4B2B442F1D302F0F1F90120E8E72DE985
:10197000F04780460E46914600254FF47A7729E0DD
:101980000DB1700716D102F0E1F9002402F0BEF9A2
:10199000A02002F089F902F0F1F918B1641CA4B298
:1019A000BC42F3D3BC420CD0F0B202F07DF902F09D
:1019B000E5F930B918F8050002F076F902F0DEF921
:1019C00020B102F0C3F90020BDE8F087761CB6B262
:1019D0006D1CADB24D45D3D302F0B8F90120F3E749
:1019E00010B58EB0184817490160082141600024E5
:1019F00084606421C160046101F07CFA4FF480507E
:101A00000A900AA9104801F0C0FA0894099408A99C
:101A10000D4801F047FA602001900C4800780290D0
:101A200003940594002201A9074801F04DFC0C2203
:101A300001A9054801F048FC034801F02DFB0EB058
:101A400010BD000000080040F80100202400002024
:101A500031B500F01FF9044600F01CF90099001B95
:101A60008842F9D338BD00002DE9F84F0023002447
:101A7000DFF8DC914FF00F0809F1040A0AF1040BBA
:101A80000BF1040E0127A7400A683A40BA4275D10B
:101A9000DFF8C0C14D68A5EB0C0665452BD00DDC09
:101AA000032D34D005DC35B3012D19D0022D2FD1F3
:101AB0001BE0112D16D0122D2AD119E0B6F5881F82
:101AC00019D006DCB6F5803F15D0B6F5801F1FD1C2
:101AD00011E0B6F5001F0ED0B6F5041F18D10AE0CC
:101AE000CB6815E0CB681B1D12E0CB6808330FE014
:101AF000CB680C330CE08B6823B1012B04D0082396
:101B0000476105E0042303E00823076100E00023A8
:101B1000FF2A01D8054601E000F1040502D84FEA8A
:101B2000840603E0A4F108064FEA86062F6808FA47
:101B300006FC27EA0C0703FA06F647EA06072F60B9
:101B40004D68ED007ED5444DAE6946F00106AE61AC
:101B5000AD6905F001050095404D24F003067719A5
:101B6000BE68A5072D0F08FA05FC26EA0C06DFF86B
:101B7000F0C0604503D14FF0000C25E062E0DFF8D3
:101B8000E4C0604502D14FF0010C1DE0DFF8D8C081
:101B9000604502D14FF0020C16E0DFF8D0C060457E
:101BA00002D14FF0030C0FE0DFF8C4C0604502D152
:101BB0004FF0040C08E0DFF8BCC0604502D14FF0E4
:101BC000050C01E04FF0060C0CFA05FC4CEA060C83
:101BD000C7F808C04D68ED0305D5D9F80050154386
:101BE000C9F8005004E0D9F800509543C9F80050F6
:101BF0004D68AD0305D5DAF800501543CAF800501A
:101C000004E0DAF800509543CAF800504D68ED0240
:101C100005D5DBF800501543CBF8005004E0DBF8A5
:101C200000509543CBF800504D68AD0205D5DEF865
:101C300000501543CEF8005004E0DEF80050954304
:101C4000CEF80050641C102CFFF41CAFBDE8F88FD8
:101C5000000401400000111000100240000001408B
:101C600000080140000C0140001001400014014038
:101C700000180140001C01408068084201D001208A
:101C8000704700207047002A01D0016170470904A5
:101C9000016170470148006870470000040000209F
:101CA00070B50446002C04D094F83500002510B11E
:101CB00006E0012070BD84F83450204600F0D2F8D0
:101CC000242084F835002068016821F001010160BA
:101CD00000F000FB01461B48B1FBF0F022685060A9
:101CE000194B62689A4201D8401C07E04FF4967283
:101CF00050434FF47A72B0FBF2F0401C226810623D
:101D0000204601F0A9FE2168C861D4E90701084313
:101D100021680860D4E90310084321688860D4E989
:101D2000050108432168C8602068016841F001018D
:101D30000160A563202084F8350084F83650002027
:101D400070BD000040420F00A08601002DE9F8435D
:101D50000446DDF82080894616461D4694F8350075
:101D6000202802D00220BDE8F88356B14DB142F2DE
:101D7000107301223A49204602F04BF818B10220B4
:101D8000F1E70120EFE794F8340001281CD001208E
:101D900084F834002068016821F40061016021208A
:101DA00084F83500102084F836000027A7634246E7
:101DB0004946204601F0F2FE60B1A06B042805D030
:101DC00084F834700320CEE70220CCE784F8347026
:101DD0000120C8E7206841698069009021E0414600
:101DE000204602F0B6F858B1A06B042801D00320B9
:101DF000B9E72068016841F4007101600120B2E791
:101E0000216816F8010B08616D1EADB220684169AA
:101E1000C943490705D425B116F8011B01616D1EA0
:101E2000ADB2002DDBD14146204601F0CBFF58B1C9
:101E3000A06B042801D0032095E72068016841F4D5
:101E40000071016001208EE72068016841F4007193
:101E50000160202084F8350084F83470002082E787
:101E60000200100000B585B00068104988421AD100
:101E70000F48C16941F40011C161C16901F4001149
:101E80000091816941F008018161806900F00800DA
:101E90000090C0200190122002900320049001A91C
:101EA0000448FFF7E1FD05B000BD0000005400400C
:101EB00000100240000C014002480168491C01600A
:101EC000704700000400002010B50748016841F089
:101ED00010010160052000F075F8002000F006F800
:101EE00000F016F8002010BD0020024010B5044696
:101EF00000F0D6F94FF47A72B0FBF2F000F099FFDF
:101F000000222146501E00F03DF8002010BD0000C8
:101F100008B51548816941F001018161806900F0CF
:101F200001000090052000F04DF8002211466FF0EE
:101F30000B0000F027F8002211466FF00A0000F0B5
:101F400021F8002211466FF0090000F01BF8002272
:101F50001146101F00F016F80022BDE80840114697
:101F6000501E00F00FB800000010024000F01F02E9
:101F7000012191404009800000F1E020C0F80011EB
:101F800070470000F0B40D460D4B1B68C3F30223ED
:101F9000C3F10704042C00D90424191D072901D218
:101FA000002300E0DB1E012606FA04F1491E294049
:101FB00099409E40761E16403143F0BC02F0CBB9EA
:101FC0000CED00E000F00701054A10684FF6FF0332
:101FD000184040EA012003490843106070470000A0
:101FE0000CED00E00000FA052DE9F04704460F462D
:101FF000DFF8A492D9F80000A84D00F007010120F5
:10200000430446064FF0020C41F28838B9426FD2C1
:10201000D9F8001021F007013943C9F80010D9F8A8
:10202000001001F00701B94201D0BDE8F087217826
:10203000890705D56968A26821F0F001114369603C
:102040002178C90761D0616801290BD002291FD00E
:102050009CFAACF2B2FA82F242F0200252092DD080
:102060002A682CE093FAA3F2B2FA82F242F020023C
:10207000520901D02A6800E06A6A93FAA3F3B3FA1E
:1020800083F303F01F039840024223D10120CCE7E1
:1020900096FAA6F2B2FA82F242F02002520901D078
:1020A0002A6800E06A6A96FAA6F3B3FA83F303F0AB
:1020B0001F03984002420DD10120B6E76A6A9CFADC
:1020C000ACF3B3FA83F303F01F039840024201D14B
:1020D0000120AAE7686820F0030008436860FFF762
:1020E000D9FD0646606801280AD0022815D021E0F3
:1020F00025E0FFF7CFFD801B404501D9032094E781
:102100006868C0F381000128F3D1ADE0FFF7C2FD9C
:10211000801B404501D9032087E76868C0F3810030
:102120000228F3D1A0E0FFF7B5FD801B404501D99F
:1021300003207AE7686810F00C0FF4D194E021785E
:10214000890705D56968A26821F0F001114369602B
:102150002178C90779D0616801290BD002291FD0E5
:102160009CFAACF2B2FA82F242F0200252092DD06F
:102170002A682CE093FAA3F2B2FA82F242F020022B
:10218000520901D02A6800E06A6A93FAA3F3B3FA0D
:1021900083F303F01F039840024223D1012044E758
:1021A00096FAA6F2B2FA82F242F02002520901D067
:1021B0002A6800E06A6A96FAA6F3B3FA83F303F09A
:1021C0001F03984002420DD101202EE76A6A9CFA53
:1021D000ACF3B3FA83F303F01F039840024201D13A
:1021E000012022E7686820F0030008436860FFF7D9
:1021F00051FD06466068012809D0022814D020E06D
:10220000FFF748FD801B404501D903200DE76868B2
:10221000C0F381000128F3D117E0FFF73BFD801BDD
:10222000404501D9032000E76868C0F38100022817
:10223000F3D10AE0FFF72EFD801B404501D90320B2
:10224000F3E6686810F00C0FF4D1D9F8000020F024
:1022500007003843C9F80000D9F8000000F0070073
:10226000B84201D00120E0E62078400705D5686833
:10227000E16820F4E060084368602078000706D534
:102280006868216920F4605040EAC100686000205D
:10229000FFF72CFE0020C8E600200240001002409C
:1022A00000B500F043F808494968F02292FAA2F21A
:1022B00001F0F001B2FA82F2D140044A515CC84008
:1022C0000349086000BD000000100240A45F000840
:1022D0000000002000B5FFF7E3FF074949684FF40D
:1022E000E06292FAA2F201F4E061B2FA82F2D14025
:1022F000024A515CC84000BD00100240A45F0008C3
:1023000000B5FFF7CDFF074949684FF4605292FAD4
:10231000A2F201F46051B2FA82F2D140024A515C59
:10232000C84000BD00100240A45F000810B585B091
:102330001AA0D0E90031D0E90220CDE90131CDE980
:1023400003201AA000680090194B5968194801F041
:102350000C02042A1DD0082A1BD14FF4701494FAE1
:10236000A4F401F47012B4FA84F4E24001ACA25C6B
:10237000C90310D559684FF4003393FAA3F301F45D
:102380000031B3FA83F3D9401DF80110B0FBF1F02E
:10239000504305B010BD08485043FAE70203040556
:1023A000060708090A0B0C0D0E0F101001020000A1
:1023B0000010024000127A0000093D002DE9F84F9C
:1023C0000446F94D20784FF00106C00775D06868C3
:1023D0007704C0F38100012807D06868C0F381004A
:1023E00002281DD16868C0031AD597FAA7F0B0FA81
:1023F00080F040F02000400901D0286800E0686AC1
:1024000097FAA7F1B1FA81F101F01F0206FA02F181
:10241000084252D0606800284FD10120BDE8F88FF3
:10242000286820F480302860286820F48020286004
:10243000FFF730FC804607E0FFF72CFCA0EB08001C
:10244000642801D90320E9E797FAA7F0B0FA80F0F1
:1024500040F02000400901D0286800E0686A97FA3F
:10246000A7F1B1FA81F101F01F0106FA01F108426A
:10247000E2D16068B0F5803F11D0A8B1B0F5A02FCF
:102480001CD0286820F480302860286820F4802040
:1024900028606068C8B3FFF7FDFB80461FE028682E
:1024A00040F480302860F4E7286820F48030286009
:1024B000286820F480202860EBE748E0286840F492
:1024C00080202860286840F480302860E1E7FFF72A
:1024D000E1FBA0EB0800642801D903209EE797FAEE
:1024E000A7F0B0FA80F040F02000400901D0286841
:1024F00000E0686A97FAA7F1B1FA81F101F01F01D3
:1025000006FA01F10842E2D021E0FFE7FFF7C2FB43
:10251000804607E0FFF7BEFBA0EB0800642801D966
:1025200003207BE797FAA7F0B0FA80F040F0200094
:10253000400901D0286800E0686A97FAA7F1B1FA6B
:1025400081F101F01F0106FA01F10842E2D1207881
:10255000DFF8588280074FF0000B4FF0020732D5AA
:1025600068684FF0F80A10F00C0F07D06868C0F3E5
:102570008100022828D16868C00325D497FAA7F003
:10258000B0FA80F040F02000400901D0286800E057
:10259000686A97FAA7F1B1FA81F101F01F0106FA12
:1025A00001F1084204D02069012801D0012035E75B
:1025B00028689AFAAAF26169B2FA82F220F0F80069
:1025C0009140084328605CE0206990B396FAA6F039
:1025D000B0FA80F048F82060FFF75CFB814607E026
:1025E000FFF758FBA0EB0900022801D9032015E7EB
:1025F00097FAA7F0B0FA80F040F02000400901D02F
:10260000286800E0686A97FAA7F1B1FA81F101F051
:102610001F0106FA01F10842E2D028689AFAAAF2EC
:102620006169B2FA82F220F0F80091400843286014
:1026300027E0FFE796FAA6F0B0FA80F048F820B05D
:10264000FFF728FB814607E0FFF724FBA0EB09001A
:10265000022801D90320E1E697FAA7F0B0FA80F04A
:1026600040F02000400901D0286800E0686A97FA2D
:10267000A7F1B1FA81F101F01F0106FA01F1084258
:10268000E2D12078000770D5A069C0B396FAA6F011
:10269000B0FA80F008EB8000C0F88064FFF7FAFA27
:1026A000814607E0FFF7F6FAA0EB0900022801D9FE
:1026B0000320B3E697FAA7F0B0FA80F040F060008C
:1026C000B6EB501F01D128680BE097FAA7F0B0FADB
:1026D00080F040F06000B7EB501F01D1286A00E0A5
:1026E000686A97FAA7F1B1FA81F101F01F0206FAC0
:1026F00002F10842D6D00120FFF7AAF935E0FFE742
:1027000096FAA6F0B0FA80F008EB8000C0F880B42A
:10271000FFF7C0FA814607E0FFF7BCFAA0EB09001B
:10272000022801D9032079E697FAA7F0B0FA80F0E1
:1027300040F06000B6EB501F01D128680BE097FA1B
:10274000A7F0B0FA80F040F06000B7EB501F01D165
:10275000286A00E0686A97FAA7F1B1FA81F101F0FE
:102760001F0206FA02F10842D6D12078400770D540
:10277000E86940F08050E861E86900F0805000901E
:10278000DFF82CA0DAF8000040F48070CAF80000EE
:10279000FFF780FA81460DE0FFF77CFAA0EB090015
:1027A000642807D9032039E60010024000004242A5
:1027B00000700040DAF80000C005EDD5286A20F06E
:1027C00001002862286A20F004002862FFF762FAFC
:1027D000814641F2883A07E0FFF75CFAA0EB090076
:1027E000504501D9032019E697FAA7F0B0FA80F016
:1027F00040F04000B6EB501F01D128680BE097FA7B
:10280000A7F0B0FA80F040F04000B7EB501F01D1C4
:10281000286A00E0686A97FAA7F1B1FA81F101F03D
:102820001F0106FA01F10842D6D1E068012811D053
:10283000A8B105281CD0286A20F001002862286A67
:1028400020F004002862E068C8B3FFF723FA81464D
:102850001FE06EE0286A40F001002862F3E7286A72
:1028600020F001002862286A20F004002862EAE7CC
:10287000286A40F004002862286A40F001002862BB
:10288000E1E7FFF707FAA0EB0900504501D9032063
:10289000C4E597FAA7F0B0FA80F040F04000B6EB3C
:1028A000501F01D128680CE097FAA7F0B0FA80F029
:1028B00040F04000B7EB501F02D1286A01E00BE066
:1028C000686A97FAA7F1B1FA81F101F01F0206FADE
:1028D00002F10842D5D02CE0FFF7DCF9814607E091
:1028E000FFF7D8F9A0EB0900504501D9032095E581
:1028F00097FAA7F0B0FA80F040F04000B6EB501F16
:1029000001D128680BE097FAA7F0B0FA80F040F008
:102910004000B7EB501F01D1286A00E0686A97FABF
:10292000A7F1B1FA81F101F01F0206FA02F10842A3
:10293000D6D1E06980B36968C1F38101022970D002
:102940004FF080794FF00077022809D099FAA9F06A
:10295000B0FA80F048F820B0FFF79CF9044668E030
:1029600099FAA9F0B0FA80F048F820B0FFF792F990
:10297000824607E0FFF78EF9A0EB0A00022801D992
:1029800003204BE597FAA7F0B0FA80F040F0200062
:10299000400902D0286801E060E0686A97FAA7F170
:1029A000B1FA81F101F01F0106FA01F10842E1D10B
:1029B000206AB0F5803F05D16868A16820F4003036
:1029C00008436860D4E908010843696821F4741178
:1029D0000843686099FAA9F0B0FA80F048F82060DE
:1029E000FFF758F9044606E0FFF754F9001B0228E8
:1029F00001D9032012E597FAA7F0B0FA80F040F071
:102A00002000400901D0296800E0696A97FAA7F020
:102A1000B0FA80F000F01F0006FA00F00142E3D0A7
:102A20001CE01DE0FFF736F9001B022801D9032046
:102A3000F4E497FAA7F0B0FA80F040F020004009E3
:102A400001D0296800E0696A97FAA7F0B0FA80F02F
:102A500000F01F0006FA00F00142E3D10020DDE49F
:102A60000120DBE4704708B501684A68D24352068A
:102A70000CD48A68D243D20708D18A68D24352065E
:102A800004D5816C01B05DF804EB08474A68D24375
:102A9000120608D48A68D243920704D4C16C01B0EC
:102AA0005DF804EB08474A68D243920635D48A6839
:102AB000D243D20606D4426D42F0020242656FF064
:102AC00010028A6001688A68D243920609D4426D76
:102AD00042F0010242658A680A6822F040020A60F8
:102AE000009201688A68D24352060AD490F85120B5
:102AF000122A06D0426D42F004024265CA688A6812
:102B00000092426D002A08D04A6822F0E0024A6032
:102B1000012180F85110FFF7A5FF08BD10B504464C
:102B2000002C03D094F8510010B104E0012010BD36
:102B3000204600F039F8022084F85100206801682E
:102B400021F040010160D4E901010843D4E90312F6
:102B50001143084361690843218B01F40071084364
:102B6000E1690843216A0843A16A084321680860B3
:102B7000A069042101EA1040616A084321684860A5
:102B80002168E06A08612068C16921F40061C161BF
:102B90000449002008706065012084F8510000207D
:102BA00010BD00000800002030B585B00068244941
:102BB000884242D12348816941F480518161816911
:102BC00001F480510091816941F0040181618169C2
:102BD00001F004010091816941F004018161806983
:102BE00000F004000090A020019002200290032039
:102BF0000490154D01A92846FEF736FF40210191AA
:102C000000240294039401A92846FEF72DFF012217
:102C100010212846FFF737F8102101910294012175
:102C2000039101A92846FEF71FFF0022012123205E
:102C3000FFF7A8F92320FFF799F905B030BD000090
:102C400000300140001002400008014010B490F82C
:102C50005130012B02D0022010BC7047D9B1D2B143
:102C600090F85030012B18D0012380F850302223E7
:102C700080F8513000234365214C8464816382874E
:102C8000C287C36403638386C3868468B4F5004F38
:102C900005D054B10DE00120DEE70220DCE7016839
:102CA0000A6822F480420A6003E04468B4F5827F37
:102CB00004D0816AB1F5005F07D010E080F8503091
:102CC000134610BC0A4600F04DB801680A6822F4A9
:102CD00000520A6001680A6842F400520A60016802
:102CE0004A6842F060024A6080F85030006801682B
:102CF000490603D4016841F0400101600020ABE7C0
:102D00006145000810B51348134A01240178A2292F
:102D100001D0D47110BD0023D37141780D48807863
:102D200069B10129F6D1D47093700328F2D10B4810
:102D3000007801280AD014715371D37010BD9470BB
:102D40000028FBD106480470937010BDD3705471F5
:102D500010BD0000540100200A0000204D0000209A
:102D60004B00002030B590F85140012C0BD0446846
:102D7000B4F5827F05D184681CB990F85140222CAB
:102D800001D0022030BD01B3FAB1F3B190F8504048
:102D9000012C1CD0012480F8504090F85140222C86
:102DA00002D0322480F8514000244465164DC56499
:102DB00001638386C3861549816482638387C387E1
:102DC000816AB1F5005F04D00DE0012030BD022022
:102DD00030BD01680A6822F400520A6001680A687E
:102DE00042F400520A6001684A6842F0E0024A6018
:102DF00080F8504000680168490603D4016841F03A
:102E000040010160002030BD35460008154400082F
:102E1000704770474FF0E021042804D0086920F083
:102E2000040008617047086940F0040008617047B9
:102E3000704710B5401EB0F1807F01D3012010BD56
:102E40004FF0E02460610F21601701F084FA002048
:102E5000A06107202061002010BD10B5FFF7E8FF3A
:102E600010BD30B590F83820012A19D0012200F8A1
:102E7000382F02234370D1E900342343D1E90245BE
:102E80002C4323430C6923434C69896923430B4337
:102E900050F8381C4B64427000210170002030BD96
:102EA000022030BD30B590F83820012A20D001230F
:102EB00080F83830022280F839200268546824F003
:102EC00070045460026854680D682C4354600268B2
:102ED000946824F0800494600268946849680C4304
:102EE000946080F83930002180F83810002030BD1F
:102EF000022030BD10B50446002C03D094F83900F0
:102F000010B107E0012010BD002084F838002046F1
:102F100000F00CF8022084F83900211D206801F02F
:102F200079FF012084F83900002010BD08B50D4B51
:102F300002680D499A4207D18A6942F400628A61A7
:102F40008A6902F4006200920068084A904207D140
:102F5000C86940F00400C861C86900F0040000902E
:102F600008BD0000002C0140001002400008004095
:102F7000022180F8391001680A6842F001020A60F3
:102F8000012180F839100020704770B5044694F88C
:102F90003800012817D0012584F83850022084F821
:102FA00039002068826822F0770222F47F42826032
:102FB000086850283AD00DDC20285FD005DCA0B38B
:102FC000102864D155E0022070BD30285BD0402825
:102FD0005DD13FE0602833D070280CD0B0F5805F21
:102FE00003D0B0F5005F52D113E02068816821F072
:102FF000070181604BE0CB68D1E90121206801F035
:1030000058FF2068816821F0770141F077018160E5
:103010003DE0CB68D1E90121206801F04AFF20683A
:10302000816841F48041816031E01DE0CA684968EF
:10303000206802F021F85021206801F044FF26E0CA
:10304000CA684968206802F028F86021206801F009
:103050003AFF1CE0CA684968206802F00DF8402178
:10306000206801F030FF12E00021206801F02BFF02
:103070000DE01021206801F026FF08E020212068E3
:1030800001F021FF03E03021206801F01CFF3834FB
:1030900065700020207070BD00B585B000680C49D7
:1030A000884213D10B48816941F008018161806930
:1030B00000F0080000904FF4007001900220029090
:1030C0000320049001A90448FEF7CEFC05B000BD22
:1030D0000008004000100240000C014070B504469A
:1030E00094F8380001280DD0012584F838500220CA
:1030F00084F8390042B1042A0AD0082A0CD00C2ADC
:1031000011D10DE0022070BD206801F0E5FE0AE05B
:10311000206801F015FF06E0206801F04BFF02E097
:10312000206801F07FFF383465700020207070BD8A
:1031300010B50446002C03D094F8390010B107E014
:10314000012010BD002084F83800204600F00CF863
:10315000022084F83900211D206801F05BFE012067
:1031600084F83900002010BD7047000010B50446F7
:103170000029226806D0042909D008290CD00C297E
:1031800013D10EE0D06840F00200D0600DE0D068AE
:1031900040F00400D06008E0D06840F00800D06043
:1031A00003E0D06840F01000D0600122206801F0F8
:1031B00075FE09492068884202D00849884203D137
:1031C000416C41F4004141642068016841F0010113
:1031D0000160002010BD0000002C014000340140BF
:1031E00010B504460022206801F058FE104841F254
:1031F000111221689310814202D00E48814209D1F8
:10320000086A104206D1086A184203D1486C20F4BB
:10321000004048642068016A114206D1016A1942DF
:1032200003D1016821F001010160002010BD000000
:10323000002C01400034014010B5044600292268EA
:1032400006D0042909D008290CD00C2913D10EE08E
:10325000D06820F00200D0600DE0D06820F00400BB
:10326000D06008E0D06820F00800D06003E0D068AB
:1032700020F01000D0600022206801F00FFE1048FE
:1032800041F2111221689310814202D00D4881420F
:1032900009D1086A104206D1086A184203D1486C65
:1032A00020F4004048642068016A114206D1016A96
:1032B000194203D1016821F001010160002010BD15
:1032C000002C01400034014070B504460D4694F8CE
:1032D000380001280DD0012684F83860022084F8D7
:1032E000390042B1042A1AD0082A2DD00C2A53D111
:1032F0003EE0022070BD2946206801F0EDFD206807
:10330000816941F0080181612068816921F004012F
:103310008161206881692A69114381613CE0294605
:10332000206801F00DFE2068816941F4006181612F
:103330002068816921F480618161206881692A693E
:1033400041EA0221816127E02946206801F032FE2E
:103350002068C16941F00801C1612068C16921F09C
:103360000401C1612068C1692A691143C16113E088
:103370002946206801F056FE2068C16941F40061C9
:10338000C1612068C16921F48061C1612068C1699F
:103390002A6941EA0221C161383466700020207038
:1033A00070BD000010B504460122206801F076FDD2
:1033B00008482168814202D00748814203D1486C05
:1033C00040F4004048642068016841F00101016058
:1033D000002010BD002C014000340140704738B57A
:1033E000044620680168C1F30001C26802F48072DB
:1033F000002904D01AB1E16B41F00101E1630168D9
:10340000C1F34002416901F0010122B119B1E26B3F
:1034100042F00402E2630268C2F3800222B119B1F1
:10342000E26B42F00202E2630268C2F3C00222B120
:1034300019B1E16B41F00801E1630168C1F340118A
:10344000C06800F0200019B110B1204601F04CFE18
:1034500020680168C1F3C011C06800F0800019B194
:1034600010B1204601F01EFF20680168C1F38011F1
:10347000C06800F0400019B110B1204601F01FFEF5
:10348000E06B002809D020680168406800900120A6
:1034900084F839002046FFF7A1FF38BD70B5044617
:1034A000002C04D094F83900002510B106E001206A
:1034B00070BD84F83850204600F020F8022084F8CF
:1034C00039002068C16821F40051C160204601F034
:1034D00063FE2068016921F490410161206841691F
:1034E00021F02A0141612068C16841F40051C160A6
:1034F000E563012084F83900002070BD10B586B066
:103500000068114988421DD11048816941F4804109
:103510008161806900F4804001904FF40070029056
:103520000220039003200590094C02A92046FEF7D3
:103530009BFA2115029100210391049102A92046D2
:10354000FEF792FA06B010BD0038014000100240AC
:103550000008014090F83930012B03D0122B01D024
:103560000220704731B32AB390F83830012B23D0B2
:10357000012380F8383081628285C2850021C163D1
:1035800090F83920122A19D0222280F8392080F8A8
:1035900038100168CA6842F48072CA6001684A69DA
:1035A00042F001024A610068C16841F02001C16037
:1035B000002070470120704702207047322280F8B7
:1035C0003920E4E72DE9F84F92480125056000F025
:1035D00003FDDFF844822C0240B1904800780128B6
:1035E00004D021464046FEF747FB08B9FDF778FFB7
:1035F00007228B498B48FFF7ADFF002873D1214686
:103600004046FEF739FB08B9FDF76AFF844F38786A
:10361000A12868D17878834C834E002824D1B978CA
:10362000A02972D00EDC06F10A0233291DD004DC79
:10363000002975D00229F1D133E0822942D09029A6
:1036400012D151E0B02921D0C0297DD0D0297CD021
:10365000FF2909D1B8790B2806D13570FF203081B8
:10366000206801684068009097E0B8790B280CD179
:103670003570F87810703879507078799070332000
:103680003081206801684068009086E0B8790B2896
:1036900006D13570B0203081206801684068009004
:1036A0007BE0B8790B2878D13570F87810703879CC
:1036B00050707879907002203081206801684068ED
:1036C00000906AE0B8790B2867D13570F8781070EF
:1036D0003879507078799070822030812068016844
:1036E0004068009059E06FE0B8790B2855D13570EB
:1036F0003879507078799070902030812068016816
:103700004068009049E000E00AE0B8790B2844D115
:103710003570A020308120680168406800903CE04E
:10372000B8790B2839D1FDF7DBFE4FF4805901221F
:1037300049464046FEF7A7FA4FF4006A0122514677
:103740004046FEF7A0FA01E012E01CE00A20FEF776
:103750007FF9002251464046FEF795FA002249467D
:103760004046FEF790FA206801684068009014E037
:10377000B8790B2811D13570C020308120680168DC
:103780004068009009E0B8790B2806D13570D02048
:10379000308120680168406800907878012813D152
:1037A000B87801281ED0022828D003280ED004287B
:1037B0000AD1B8790B2807D135704FF48270308167
:1037C0002068016840680090BDE8F88FB8790B2840
:1037D000FAD1357040F203103081206801684068EA
:1037E0000090F1E7B8790B28EED1357040F2011066
:1037F00030812068016840680090E5E7B8790B28BF
:10380000E2D135704FF481703081206801684068E2
:103810000090D9E714040140000C01404B00002047
:1038200054000020B80100200A0000202DE9F041DA
:1038300004460D46984694F83900012804D0222801
:1038400002D00220BDE8F0819DB192B194F8380019
:10385000012810D0012684F838600027E76394F827
:103860003900222809D0122084F83900A284E28489
:103870002EE00120E6E70220E4E7322084F8390058
:10388000F4E7401EE084A068B0F5805F08D04346AE
:1038900000228021204601F03AFDA8B10320D1E7A3
:1038A000434600228021204601F031FD08B103206B
:1038B000C8E728882168C0F308004860206908B17B
:1038C0006D1C05E0AD1C03E0216815F8010B486094
:1038D000E08C0028D5D1434600224021204601F04B
:1038E00016FD08B10320ADE794F83900322805D061
:1038F00084F8396084F838700020A3E7222084F827
:103900003900F7E77047FEE710B5C0F30313002155
:103910000B4A545C9C4203D0491CC9B21029F8D30D
:1039200000F00F030020145C9C4203D0401CC0B286
:103930001028F8D3105C515C00EB011010BD0000A2
:10394000B45F000810B5C0F3031300210B4A545CA8
:103950009C4203D0491CC9B21029F8D300F00F03D0
:103960000020145C9C4203D0401CC0B21028F8D345
:10397000515C105C090501EB004010BDB45F00080C
:1039800010B5C0F3031300210B4A545C9C4203D0D2
:10399000491CC9B21029F8D300F00F030020145CB1
:1039A0009C4203D0401CC0B21028F8D3515C105C7C
:1039B000090301EB002010BDB45F000810B5C0F38F
:1039C000031300210B4A545C9C4203D0491CC9B22A
:1039D0001029F8D300F00F030020145C9C4203D0A0
:1039E000401CC0B21028F8D3515C105C090701EBF1
:1039F000006010BDB45F000810B50E4C002210210D
:103A00002046FEF740F900F04BF801222021204625
:103A1000FEF739F900F044F8002220212046FEF795
:103A200032F900F03DF820460122BDE81040102197
:103A3000FEF729B9000C014010B5044600F036F835
:103A400000F064F9204600F02FF900F097F90446E1
:103A500000F07CF9204610BD104B42689A4208D80D
:103A60005000B1FBF0F0C0F30B01042900D2042098
:103A70007047806858B102EBC20000EB0210B1FB46
:103A8000F0F040F440400105F2D10120704702EB14
:103A90004200B1FBF0F040F40040F4E7A0860100E2
:103AA0000020401CC0B20A28FBD3704700B585B087
:103AB0000E48816941F008018161806900F00800C9
:103AC00000900B48416821F0E06141F08071416055
:103AD00030200190112002900120049001A9054896
:103AE000FDF7C2FF00F032F905B000BD0010024042
:103AF00000000140000C014001684A69D2435205B0
:103B00000CD44A6922F480624A6104213430416055
:103B10002021417000210170012070470020704772
:103B20002DE9FC4100240F4D4FF6FF7640F20F3790
:103B3000285D0190032301AA39460B480096FEF741
:103B400005F940B109A001F04DFC641CE4B2032C5E
:103B5000EED3BDE8FC810AA001F044FC0520FDF78E
:103B600077FFF2E7480000207C0400206932635FA1
:103B70007478206973206572726F72200A000000E9
:103B80004932432073656E642064617461206973F7
:103B9000207375636365737364200A0070B504460F
:103BA0000D4616462068016841F480710160334675
:103BB00000224FF00111204600F02BF908B103203C
:103BC00070BD2069B0F5804F11D005F44070F02130
:103BD00041EAD0102168086132461249204600F0BF
:103BE0006FF958B1A06B042806D0032070BD21687E
:103BF00005F0FE00086104E0012070BD2168E8B214
:103C0000086108493246891F204600F059F930B151
:103C1000A06B042801D0032070BD012070BD0020DE
:103C200070BD00000800010010B50C4C01221021ED
:103C30002046FEF728F8FFF733FF01222021204617
:103C4000FEF721F8FFF72CFF002220212046FEF787
:103C50001AF8BDE81040FFF723BF0000000C014038
:103C600070B5002400250F4E6006040E01222021AD
:103C70003046FEF708F8FFF713FF10213046FDF736
:103C8000FBFF08B1641CE4B2002220213046FDF79E
:103C9000FAFFFFF705FF6D1CEDB2082DE4D32046B7
:103CA00070BD0000000C014070B505460024164EA2
:103CB000280605D5012210213046FDF7E4FF04E077
:103CC000002210213046FDF7DEFFFFF7E9FE01225A
:103CD00020213046FDF7D7FFFFF7E2FE002220212A
:103CE0003046FDF7D0FF072C04D1012210213046C9
:103CF000FDF7C9FF6806050EFFF7D2FE641CE4B2AB
:103D0000082CD5D370BD0000000C014010B50E4C3E
:103D1000012210212046FDF7B6FF01222021204676
:103D2000FDF7B1FFFFF7BCFE002210212046FDF792
:103D3000AAFFFFF7B5FE002220212046FDF7A3FFD2
:103D4000BDE81040FFF7ACBE000C014010B50A4CB6
:103D5000002210212046FDF796FF01222021204657
:103D6000FDF791FFFFF79CFE20460122BDE81040C1
:103D70001021FDF788BF0000000C014070B5104D08
:103D8000012210212846FDF77EFFFFF789FE012260
:103D900020212846FDF777FFFFF782FE10212846F5
:103DA000FDF76AFF08B1012400E000240022202171
:103DB0002846FDF768FFFFF773FE204670BD000040
:103DC000000C014070B504460D46FDF763FF064642
:103DD00018E02046FFF790FE08B1012070BD681C76
:103DE00010D025B1FDF756FF801BA8420AD9343404
:103DF000606840F02000606020206070002020702B
:103E0000032070BD20684069C0434007E1D4002012
:103E100070BD2DE9F05F04460E4693461D46FDF742
:103E200039FF07464FF000094FF0200AC6F3074854
:103E3000BBF1000F0FD02FE0681C0CD025B1FDF7AF
:103E400029FFC01BA84206D984F835A084F8349015
:103E50000320BDE8F09FB8F1010F07D0206880690A
:103E600026EA00000004000C20D0E5E72068406945
:103E700026EA00000004000C18D0DDE7681C0BD017
:103E800025B1FDF707FFC01BA84205D984F835A06E
:103E900084F834900320DCE7B8F1010F08D02068E3
:103EA000806926EA00000004000CE7D00020D0E77B
:103EB0002068406926EA00000004000CDED0F5E727
:103EC0002DE9F04704460E461546FDF7E3FE07468A
:103ED0004FF000094FF0200AC6F3074825E020689C
:103EE0004069C043400512D42068016841F4007164
:103EF00001602068416921F4806141610420A06370
:103F000084F835A084F834900120BDE8F087681C5F
:103F10000BD025B1FDF7BEFEC01BA84205D984F821
:103F200035A084F834900320EFE7B8F1010F08D0F2
:103F30002068806926EA00000004000CCFD1002030
:103F4000E3E72068406926EA00000004000CF6D090
:103F5000C5E770B504460D46FDF79CFE064618E021
:103F60002046FFF7C9FD08B1012070BD681C10D0C4
:103F700025B1FDF78FFE801BA8420AD93434606852
:103F800040F020006060202060700020207003203E
:103F900070BD20684069C0430006E1D4002070BDB8
:103FA00010B50C4C02212046FDF766FE38B91420EE
:103FB000FDF74EFD02212046FDF75EFE08B101200F
:103FC00010BD02212046FDF757FE0028F9D0002041
:103FD00010BD0000000C014010B50C4C0121204622
:103FE000FDF74AFE38B90A20FDF732FD01212046CF
:103FF000FDF742FE08B1012010BD01212046FDF76A
:104000003BFE0028F9D0002010BD0000000C01404C
:1040100070B586B01648816941F0080181618169F7
:1040200001F008010191816941F008018161806915
:1040300000F0080001900220029000250395012461
:1040400004940C4E02A93046FDF70EFDA00202902A
:104050000395049402A93046FDF706FD02940395EA
:10406000049402A93046FDF7FFFC06B070BD0000C5
:1040700000100240000C01407CB510A003C8CDE93F
:104080000001FDF7FBFB0F4C012807D10020207039
:1040900001220C212046FDF735FC257820788DF88B
:1040A0000400294608A001F09DF90C230622694668
:1040B0000B48FFF7BBFB28467CBD0000A1040000B5
:1040C000000B00007C0300204C616D70204272697F
:1040D0006768746E657373206973202564200A0015
:1040E000B80100202DE9F0470446FDF7C7FB244E38
:1040F0004FF400674FF48058012824D1DFF88490F2
:10410000002089F80000204D2C7001220C21284647
:10411000FDF72DFC6420FDF79BFC01220C21484695
:10412000FDF7F0FB044699F80000297888420AD090
:10413000002239463046FDF7A6FD002241463046B2
:10414000FDF7A1FDFEE7012C18D1002239463046CB
:10415000FDF799FD002241463046FDF794FD3220DF
:10416000FDF776FC012239463046FDF78CFD4146CD
:104170003046BDE8F0470122FDF785BDBDE8F08778
:10418000000C01407C0300207C020020F0B585B0CB
:104190001C48816941F008018161816901F00801D1
:1041A0000091816941F008018161806900F0080097
:1041B0000090154F4FF40064002221463846FDF769
:1041C00062FD6500002229463846FDF75CFD01943A
:1041D000012402940326049601A93846FDF744FC05
:1041E00001950294049601A93846FDF73DFC200292
:1041F000019000200290039401A93846FDF734FC99
:1042000005B0F0BD00100240000C01400A48094909
:1042100001600A4941600021816040F20F32C260B2
:104220004FF4804202614161FF228261C1610162FB
:10423000FDF736BD005400407C040020801A0600C3
:1042400010B5012211462520FDF79CFEBDE8104067
:104250002520FDF78BBE000008B50E48816941F0AE
:1042600004018161806900F0040000900B480A4954
:1042700001604FF4E131416000218160C160016162
:104280000C2242618161C161FFF708F9BDE8084075
:10429000FFF7D6BF0010024000380140B8010020EF
:1042A000FEE700002DE9F04120480168CCB201682A
:1042B000C1F307250168C1F307460068070EFDF743
:1042C000DDFA01282FD10020194B1A4900221A5477
:1042D0000A54401CC0B20428F9D30F704E708D7080
:1042E000CC70042205211348FDF741FB0446C82089
:1042F000FDF7AEFB012C04D0BDE8F0410EA001F0AB
:1043000071B8134D4FF40064002221462846FDF792
:10431000BAFC0A20FDF79CFB21462846BDE8F04187
:104320000122FDF7B0BCBDE8F08100003C00002098
:104330007C0300207C020020656570726F6D206335
:104340006865636B206572726F72200A000000005E
:10435000000C014070470907090E002806DA00F03A
:104360000F0000F1E02080F8141D704700F1E020FC
:1043700080F80014704700007CB513A003C8CDE995
:104380000001FDF77BFA124C012808D1022210210E
:104390002046FDF7B7FA6078217840EA0125607879
:1043A0008DF8040022788DF803200A494A7088703D
:1043B000294609A001F016F80C23062269460C488C
:1043C000FFF734FA7CBD0000A1010000000B0000E3
:1043D0007C030020480000204D6F746F72205370E2
:1043E000656564206973203A202564200A00000076
:1043F000B801002010B5072204490548FEF726FC45
:10440000BDE810400248FEF72EBB0000540100201A
:10441000B8040020C3680268816B002B0CD0D268FE
:104420000A80816B891C8163C18F491E89B2C18753
:10443000002906D100F018B8D2684B1C83630A70BB
:10444000F2E7704706490978002905D00068054958
:10445000884201D1406908B10120704700207047AF
:10446000080000200038004038B5044600200090C5
:10447000A06AB0F5005F2CD10A230022012120465A
:1044800000F0FAF818B1606D40F010006065206827
:10449000C0680090BDF8000001220A2311462046A2
:1044A00000F0EAF818B1606D40F010006065206817
:1044B0008068C043C0060CD494F8510022281BD158
:1044C0002046FFF7BFFF012816D021686FF01000CB
:1044D00088602068416821F040014160206841689F
:1044E000C94309062BD5416821F02001416060686D
:1044F000B0F5827F0FD01AE0606D40F00200606579
:104500002068016821F4005101602068016841F4CD
:1045100000510160DDE7A068B0F5004F02D0B0F5B2
:10452000806F04D12068016821F040010160616D55
:10453000012029B184F851002046FEF793FA38BDD6
:1045400094F85110322905D084F851002046FEF726
:10455000D9FB38BD84F851002046FEF75AFC38BD1F
:10456000C3680268816B002B0BD0D2680A80816B14
:10457000891C8163C18F491E89B2C187012905D079
:104580000DE0D2684B1C83630A70F3E7816AB1F5D2
:10459000005F04D101680A6842F480520A60C18F4A
:1045A000002901D1FFF760BF704738B504460A23E0
:1045B00000220221204600F05FF818B1606D40F043
:1045C000100060652068416821F08001416020682A
:1045D0004168C94349061CD5416821F0200141606A
:1045E0000A2301228021204600F046F818B1606DB0
:1045F00040F010006065A06818B92068C168806844
:104600000090616D012029B184F851002046FEF729
:1046100029FA38BD94F85110322905D084F8510098
:104620002046FEF7F5FB38BD84F851002046FEF722
:10463000F0FB38BDC3680268016B002B0FD00988FE
:10464000D160016B891C0163C18E491E89B2C1868C
:10465000002910D1816AB1F5005F05D009E04B1C3B
:1046600003630978D160EFE701680A6842F4805279
:104670000A60FFF79ABF70472DE9F05F04460F46C6
:1046800093461D46FDF706FB06464FF000084FF423
:10469000005A4FF00109BBF1000F26D050E0681C12
:1046A00023D025B1FDF7F6FA801BA8421DD920685A
:1046B000416821F0E00141602068016821F040017B
:1046C0000160A06A504509D12068016821F40051B9
:1046D00001602068016841F40051016084F8519044
:1046E00084F850800320BDE8F09F2068806837EA96
:1046F0000000D4D129E0681C22D025B1FDF7CAFA08
:10470000801BA8421CD92068416821F0E00141606B
:104710002068016821F040010160A06A504509D17C
:104720002068016821F4005101602068016841F4AB
:104730000051016084F8519084F850800320D2E742
:104740002068806837EA0000D5D00020CBE7000061
:1047500010B50F4C0D48206000206060A060E06044
:10476000206160614FF40071A1612021E16120624C
:104770006062A0620720E0622046FEF7CFF9206861
:10478000016841F04001016010BD000000300140AF
:10479000B804002070B50E464FF0FF35124A51693B
:1047A0000C1A12480178002905D06CB1104B18780A
:1047B00001280BD010E015210170FCF7B7FD04466D
:1047C0000CA000F00FFE07E0002505E000201870A7
:1047D000002450619060906105FB04F03146BDE813
:1047E000704000F015B80000280000201C000020D8
:1047F0001D000020706F776572206F6E20666972F1
:1048000073742072756E2030786230200A000000C8
:104810002DE9F05F044641F27075DFF80CA14348C2
:10482000DFF80C81434F444E4FF00A0B4FF0010963
:10483000002C18DA87F8019000220821FDF723FAEE
:1048400098F800006442012802D19AF8000008B1EB
:10485000346118E088F800B03461BC60FCF766FD94
:104860004042B0610FE00021797001220821FDF77C
:104870000AFAF46098F80000012802D19AF80000C2
:10488000E8B3F460BC60002C4BD02A4CDFF8ACA03D
:104890004FF4FA680C344FF4005BA6F8028070887D
:1048A000786087F800902068416A7A681144416313
:1048B000204800210C30FEF759FC0122002150460F
:1048C00000F0ECFA012259461D48FDF7DCF96D1E97
:1048D000ADB2E2D2FCF716FD70807088786087F880
:1048E00000902068416A7A681144416311480021B0
:1048F0000C30FEF73BFC01220021504600E008E0AE
:1049000000F0CCFA5946BDE8F05F01220C48FDF7F3
:10491000BAB988F800B0F460FCF708FDB061BC607B
:10492000B1E7BDE8F09F00001D0000200008014035
:104930001C0000203402002028000020002C014030
:10494000000C0140F0B585B02648816941F00401B2
:104950008161816901F004010091816941F00401E4
:104960008161816901F004010091816941F00801D0
:104970008161816901F008010091816941F00801BC
:104980008161806900F0080000904FF48070019010
:104990000220029003240494134E01A93046FDF72F
:1049A00063F80821019101250295049401A930467C
:1049B000FDF75AF86E030196029504940B4F01A976
:1049C0003846FDF751F8AA0301920295049401A913
:1049D0003846FDF749F8002231463846FDF753F9CD
:1049E00005B0F0BD0010024000080140000C01407D
:1049F0002DE9F0410E4690461F464FF0FF35FEF779
:104A0000A1FF04463046FEF7BBFF06464046FEF7D0
:104A10007BFFA119164C0844E06116480178002676
:104A200041B115480178012911D06069E169411A45
:104A3000A9B115E005210170FCF778FC6061A1685F
:104A400062691144E269891AA661A060F0E7067004
:104A5000A660A6616661A068E169411AE8E70025E1
:104A600005FB01F03946BDE8F041FFF7D1BE00007B
:104A7000280000201C0000201D00002030B595B04B
:104A80002A49294D0D600320486000248C604FF6B0
:104A9000FF70C8600C614C610846FEF72BFAA81441
:104AA000119011A92148FEF770FA2048FEF740FB4B
:104AB0000F9410940FA91D48FEF7F4F90894099477
:104AC0000A940B940C9468140D900E9408A917483E
:104AD000FEF7C7F930200190154840880290022067
:104AE000039008200490059406940794002201A9DD
:104AF0000E48FEF7F3FAFFF725FF00210B48FEF7FB
:104B00009BFB00210948FEF76BFB0022114628465B
:104B100000F0C4F9022200211B20FDF733FA1B200C
:104B2000FDF724FA15B030BD002C014040020020F2
:104B3000280000202DE9F0413A48012141703A490E
:104B400000240C6039490C60446039480460FCF76B
:104B500095FE012813D100203649374A0C541454CD
:104B6000401CC0B20C28F9D30A2200213248FCF7BD
:104B7000FEFE05460A20FCF76BFFFCF703FC2F4CFA
:104B80004FF40066012D35D0002231462046FDF756
:104B90007AF8A514002229462046FDF774F84FF450
:104BA000FA773846FCF754FF012231462046FDF7DC
:104BB0006AF8012229462046FDF765F83846FCF7D9
:104BC00047FF002231462046FDF75DF800222946C6
:104BD0002046FDF758F83846FCF73AFF01223146E7
:104BE0002046FDF750F829462046BDE8F041012255
:104BF000FDF749B8002231462046FDF744F832203F
:104C0000FCF726FF012231462046FDF73CF8322012
:104C1000FCF71EFF31462046BDE8F0410022FDF7BB
:104C200032B800001C000020400000203C000020A2
:104C3000180000207C0300207C020020000C0140B2
:104C400010B5FDF739F9BDE81040FEF706B930B5EB
:104C50008FB00120059000040690002407940225DF
:104C60000C950D904FF4E0100E9005A8FDF7A6FBF3
:104C70000F20009001950294680203900494022191
:104C80006846FDF7B1F9FDF70BFB4FF47A71B0FB05
:104C9000F1F0FEF7CEF80420FEF7BCF80022114632
:104CA000501EFDF76FF90FB030BD00000D480168D0
:104CB00041F00101016041680B4A11404160016807
:104CC0000A4A11400160016821F4802101604168B5
:104CD00021F4FE0141604FF41F0181600449C003CB
:104CE00008607047001002400000FFF8FFFFF6FE6A
:104CF00008ED00E02DE9F041404E3068C168C9433D
:104D000089073DD46FF0020707613068416A3C4C67
:104D10006288114441636078401CC0B26070022810
:104D20002ED100256570A6F10C014878012829D004
:104D3000E068A269904203D0E068A269904200DA7C
:104D40000D700878DFF8BC8030B3012818D198F8CE
:104D500000000A2840D02C480278012A41D0A069DE
:104D6000401CA0614878B0B3A068401EA060606994
:104D7000401E60618868A269904201D10D708D600B
:104D8000BDE8F0812069A269904203D02069A26940
:104D90009042D6DA0D70D4E7A56100211748FEF7DE
:104DA0004BFA00221146194800F078F83068076184
:104DB00000224FF400511648FCF765FF01202070D7
:104DC00098F800001528DBD1642088F80000A56160
:104DD0006561A560D4E709E0142088F80000A561AA
:104DE000C0E70570A5616561A560BBE7A068401CD0
:104DF000A0606069401C6061BCE7000040020020C8
:104E0000280000201C0000201D000020002C014074
:104E1000000C01402DE9F04102681B4D1B4E1C4F58
:104E2000DFF870C01C4B4FF08048A84209D0984270
:104E300007D0404505D0B04203D0B84201D060450C
:104E400003D122F070044A682243A84209D0984254
:104E500007D0404505D0B04203D0B84201D06045EC
:104E600003D122F44074CA68224302608A68C26295
:104E70000A688262A84201D0984201D1096901639F
:104E800001214161BDE8F081002C01400004004097
:104E900000080040000C00400034014010B5012320
:104EA0008B40046A9C430462036A8A401343036292
:104EB00010BD10B5846824F47F4442EA03220A43FB
:104EC0002243826010BD826822F070020A4342F0E1
:104ED0000701816070470000F0B5026A22F001020C
:104EE0000262026A4368846924F0700424F00305B6
:104EF0000C682C4322F002058A682A430E4E0F4F9D
:104F0000B04201D0B84205D122F00805CA682A4350
:104F100022F00402B04201D0B84207D123F48073DA
:104F200023F400734D691D438B692B4343608461F7
:104F3000496841630262F0BD002C01400034014029
:104F4000F0B5026A22F010020262036A42688469C4
:104F500024F4E04424F440740D6844EA052423F06A
:104F600020038D6843EA0513104D114EA84201D06D
:104F7000B04206D123F08003CF6843EA071323F041
:104F80004003A84201D0B04209D122F4806222F449
:104F900000624D6942EA85028D6942EA85024260FB
:104FA0008461496881630362F0BD0000002C014008
:104FB00000340140F0B5026A22F480720262026A93
:104FC0004368C46924F0700424F003050C682C4382
:104FD00022F400728D6842EA0522104D104EA8425C
:104FE00001D0B04206D122F40062CF6842EA072223
:104FF00022F48062A84201D0B04209D123F4805348
:1050000023F400534D6943EA05138D6943EA051300
:105010004360C4614968C1630262F0BD002C014075
:105020000034014030B5026A22F480520262046A00
:105030004268C36923F4E04323F440730D6843EAF4
:10504000052324F400548D6844EA0534084DA84231
:1050500002D0084DA84204D122F480424D6942EAB0
:1050600085124260C36149680164046230BD00007A
:10507000002C01400034014010B5036A046A24F09A
:1050800001040462846924F0F00444EA021423F069
:105090000A020A438461026210BD10B5036A23F05C
:1050A000100303628469036A24F4704444EA023200
:1050B00023F0A00343EA01118261016210BD10B523
:1050C0000168CA6822F04002CA6090F8391032299B
:1050D00006D0012180F83910FEF714FC002010BD25
:1050E000222180F83910F7E710B590F839102229FD
:1050F00003D0322901D0022010BD8168B1F5805F54
:1051000011D0016919B30168496801F07F03816A10
:105110004A1C82620B70C18D491E0904090CC185AD
:105120001CD0002010BD816A02693AB10268526841
:10513000D2B20A80816A491C8162ECE70268526837
:10514000C2F308020A80816A891C8162E3E7016870
:105150004A68816A4B1C83620A70DCE70168CA688E
:1051600022F02002CA6090F83910322910D001686C
:10517000CA6822F48072CA6001684A6922F001029A
:105180004A61012180F83910FEF71CFA002010BD99
:10519000122180F83910F7E72DE9F0410446206824
:1051A0000169E26821F4405111430161A16820695D
:1051B0000143606901432068C26841F20C639A436D
:1051C0000A43C26020684169A26921F44071114319
:1051D00041613349206864253226884230D1FDF789
:1051E0008FF800EBC00101EB001061688900B0FB93
:1051F000F1F0B0FBF5F7FDF783F800EBC00101EB30
:10520000001061688900B0FBF1F8FDF779F800EB58
:10521000C00101EB001061688900B0FBF1F0B0FB48
:10522000F5F06FF01801484308EB800006EB001022
:10523000B0FBF5F0216867F31F108860BDE8F081CE
:10524000FDF748F800EBC00101EB00106168890030
:10525000B0FBF1F0B0FBF5F7FDF73CF800EBC00157
:1052600001EB001061688900B0FBF1F8FDF732F83E
:1052700000EBC00101EB001061688900B0FBF1F0A8
:10528000B0FBF5F06FF01801484308EB800006EB27
:105290000010B0FBF5F0216867F31F108860CDE7C0
:1052A0000038014090F83910122903D0322901D07A
:1052B000022070478168B1F5805F0CD0016A4A1CFA
:1052C0000262026809785160C18C491E0904090C08
:1052D000C18410D019E0016A02680988C1F308018D
:1052E0005160016919B1016A491C0162ECE7016A68
:1052F000891C0162E8E70168CA6822F08002CA607E
:105300000068C16841F04001C160002070472DE98C
:10531000F04704460F4692461D46FCF7BBFC064686
:105320004FF000084FF00109BAF1000F23D04AE016
:10533000681C20D025B1FCF7ADFC801BA8421AD90F
:105340002068C16821F08001C1602068C16821F037
:105350002001C1602068C16821F48071C1602068AB
:10536000416921F00101416184F8399084F8388065
:105370000320BDE8F0872068006837EA0000D7D135
:1053800026E0681C1FD025B1FCF784FC801BA842D6
:1053900019D92068C16821F08001C1602068C16806
:1053A00021F02001C1602068C16821F48071C160D2
:1053B0002068416921F00101416184F8399084F845
:1053C00038800320D5E72068006837EA0000D8D08D
:1053D0000020CEE70148FEF702B80000B801002027
:1053E000FEE700000FB4054B10B503A9044A02986C
:1053F00000F0CAF810BC5DF814FB0000B95C0008AE
:105400005000002002E008C8121F08C1002AFAD18B
:1054100070477047002001E001C1121F002AFBD134
:10542000704700002DE9FF5FDDE90220010DDDF886
:1054300038B0024318D044F61050A1F2FF31414376
:105440000D140F98012820D0A5EB0B00401C5FEA3B
:10545000000A4FF00004474EDFF81C91A04650466A
:1054600016D5CAF1000728E00F98012443A20128AD
:1054700008D0002100980F9BC0E90021C0E9024339
:10548000BDE8FF9F6FEA0B01F4E7CBF10000DEE718
:10549000074612E0F80707D0224633464046494601
:1054A000FBF764F880468946224633461046194683
:1054B000FBF75CF804460E467F10002FEAD1DDE9C9
:1054C0000201BAF1000F42464B4602DAFBF74EF8F2
:1054D00001E0FBF7BDF804460E460022284BFBF71F
:1054E0003FF903D84FF0FF30014607E00022254B7B
:1054F00020463146FAF793FFFBF719F9102409E02B
:10550000002C0ADB0A220023FAF7C4FE019B30328A
:105510001A55641E50EA0102F2D1641C019AC4F1CA
:10552000110314440F9A012A03D0012208430DD11C
:105530000AE0084304D000204FF0110B0F9080E7E1
:10554000A3EB0B056D1E0DE05B4504DD4FF0000283
:1055500005F1010504E003DA4FF00002A5F10105B1
:10556000002AECD000980F99C0E90231C0E900454B
:1055700086E70000000024400000F03F30000000FB
:105580000000F0430000E03F2DE9FF4F95B09B463F
:105590008946064600250FE2252877D100242746B4
:1055A000F84A0121059400E0044316F8013F203B2E
:1055B00001FA03F01042F7D130782A2811D06FF0A9
:1055C0002F033078A0F13002092A16D8059A44F04A
:1055D000020402EB820203EB42021044761C0590A7
:1055E000EFE759F8042B0592002A03DA504244F4FD
:1055F0000054059044F00204761C30782E2816D111
:1056000016F8010F44F004042A280DD06FF02F0281
:105610003078A0F13003092B09D807EB870302EBA0
:105620004303C718761CF3E759F8047B761C3078DF
:105630006C280FD006DC4C2817D068280DD06A28BB
:1056400014D104E0742810D07A280FD10DE044F46E
:1056500000140AE044F4801401E044F44014727829
:10566000824202D104F58014761C761C30786628BC
:105670000BD013DC582877D009DC002875D04528DA
:10568000F6D04628F4D047281AD19DE118E06328C7
:1056900035D0642879D0652812D195E1702873D06F
:1056A00008DC6728F1D069286FD06E280DD06F28EC
:1056B00006D1B5E073282CD0752875D0782874D021
:1056C0005A46179990476D1C75E1C4F302500228A1
:1056D00009D003280DD0D9F8001004280DD00D6092
:1056E00009F1040967E1D9F80010EA17C1E900528D
:1056F000F6E7D9F800100D80F2E70D70F0E719F821
:10570000041B8DF8001000208DF80100EA460120EE
:1057100003E059F804AB4FF0FF3061074FF0000190
:1057200002D40DE008F101018846B9420FDA804544
:10573000F8DB1AF808100029F4D108E008F101019B
:1057400088468142FADB1AF808100029F6D105983C
:105750005B46A0EB080721463846179A00F094FAFA
:10576000284400EB080507E04DE029E10DE01AF8B8
:10577000010B5A4617999047B8F10108F7D25B46DA
:1057800021463846179A13E142E00A220092C4F3F8
:1057900002524FF0000A022A08D059F804CB032A1B
:1057A0004FEAEC710AD00DE029E02AE009F1070187
:1057B00021F00702F2E802C1914609E00FFA8CFCE1
:1057C0004FEAEC71042A03D14FFA8CFC4FEAEC71DA
:1057D000002907DA0A460021DCF1000C61EB020126
:1057E0002D2202E0220504D52B228DF8042001226F
:1057F00003E0E20701D02022F7E7904659E00A21B2
:1058000002E010220DE010214FF0000A00910BE0A1
:1058100010224FF0000A44F004040827009203E02D
:1058200008224FF0000A0092C4F30252022A05D067
:1058300059F804CB0021032A08D009E009F1070137
:1058400021F00702F2E802C1914605E01FFA8CFC44
:10585000042A01D10CF0FF0C4FF00008220728D5D4
:10586000702806D0009B83F0100353EA0A0305D08A
:105870000EE040228DF80420012208E05CEA0102DB
:1058800006D030228DF804208DF8050002229046C3
:10589000009B83F0080353EA0A030AD15CEA010281
:1058A00001D1620705D530228DF804204FF00108A0
:1058B0007F1E582804D034A003900EA802900DE05B
:1058C00036A0F9E753466046009AFAF7E3FC8446AF
:1058D0000398825C0298401E029002705CEA01000C
:1058E000F0D1029806A9081A00F1200A600702D533
:1058F00024F4803400E00127574502DDA7EB0A00BD
:1059000000E0002000EB0A01009005984144401A95
:105910000590E00306D45B462146179A059800F0EF
:10592000B3F90544002706E001A85A46C05D17995F
:1059300090476D1C7F1C4745F6DBE0030CD55B46AA
:105940002146179A059800F09FF9054404E030209D
:105950005A46179990476D1C0099481E00900029DF
:10596000F5DC08E0029802995A460078491C029139
:10597000179990476D1CBAF10001AAF1010AF1DCF8
:1059800065E1000009280100303132333435363703
:10599000383961626364656600000000303132337B
:1059A000343536373839414243444546000000001B
:1059B00000F058F90544761C307800287FF4ECADEF
:1059C00019B02846BDE8F08F620700D4062709F118
:1059D000070222F0070CFCE80223E14603F000482E
:1059E0005FEA080C02D00FF2702C0DE05FEA045C55
:1059F00002D50FF2682C07E05FEAC47C02D00FF2F8
:105A0000602C01E0AFF2700C4FF0FF3823F0004340
:105A1000CDF850C065280CD006DC452809D04628B2
:105A20001DD047283DD13DE0662818D067287ED19B
:105A300038E00021112F01DB112000E0781CCDE9B6
:105A4000000106A90EA8FFF7EDFCDDE90F010E9A93
:105A500003910021009207F1010A04914DE04FF0FB
:105A600000400097CDE9011006A90EA8FFF7DAFC67
:105A7000DDE90F0203920E9B11990022DDF80CA0C4
:105A80000093049211B9791C00EB010AB7EB0A00EC
:105A900004D4C0F1FF3007F1010A0490AAEB07001B
:105AA000019044E0012F00DA01270021112F01DDD0
:105AB000112000E03846CDE9000106A90EA8FFF745
:105AC000B1FCDDE90F010E9A0391002104910092CF
:105AD000BA4621070CD40399514500DA8A46BAF137
