:020000040800F2
:100000001015002045010008654300081739000855
:10001000B142000871120008F95300080000000006
:100020000000000000000000000000005701000870
:100030004D170008000000005B010008514C00084B
:100040005F0100085F0100085F0100085F01000810
:100050005F0100085F0100085F0100085F01000800
:100060005F0100085F0100085F0100085F010008F0
:100070005F0100085F0100085F0100085F010008E0
:100080005F0100085F0100085F0100085F010008D0
:100090005F0100085F0100085F0100085F010008C0
:1000A0005F0100085F0100085F010008054D0008BE
:1000B0005F0100085F0100085F0100085F010008A0
:1000C0005F0100085F0100085F01000805440008A7
:1000D0005F010008ED5300085F0100085F010008A0
:1000E0005F0100085F0100085F0100085F01000870
:1000F0005F0100085F0100085F0100085F01000860
:100100005F0100085F0100085F0100085F0100084F
:100110005F0100085F0100085F0100085F0100083F
:100120005F0100085F0100085F0100085F0100082F
:10013000DFF80CD000F02CFB00480047E95C000819
:10014000101500200648804706480047FEE7FEE7F6
:10015000FEE7FEE7FEE7FEE7FEE7FEE7FEE7FEE777
:10016000BD4C000831010008202A04DB203A21FAA6
:1001700002F00021704721FA02F3D040C2F12002C0
:10018000914008431946704740EA01039B0703D09A
:1001900009E008C9121F08C0042AFAD203E011F8C6
:1001A000013B00F8013B521EF9D27047421C10F887
:1001B000011B0029FBD1801A704770B521F0004364
:1001C00003430CD0C1F30A550024D5EB040564EBBE
:1001D0000403D617AD1AB34102DB0020014670BDFF
:1001E000201841EB025170BD0EB5C10F80EAE070DE
:1001F0000844CA07002140F233438DE80E000A4646
:100200000B4600F0BEF803B000BD00F0004230F035
:1002100000400AD0C10D01F56071C0F3160042EA3A
:100220000151C20840071143704700200146704742
:1002300001F0004330B421F0004150EA010206D041
:100240000A0DA2F56072C1F31301002A02DC30BC72
:1002500000207047440F44EAC104C100E01830BCDC
:1002600000EBC25000F047B830B50B460146002005
:100270002022012409E021FA02F59D4205D303FA68
:1002800002F5491B04FA02F52844151EA2F10102E9
:10029000F1DC30BD2DE9F05F0546002092469B461B
:1002A00088460646814640241BE02846414647468C
:1002B0002246FFF759FF53465A46C01A914110D3C0
:1002C00011461846224600F075FA2D1A67EB010810
:1002D0004F4622460120002100F06CFA17EB00097E
:1002E0004E41201EA4F10104DFDC484631462A4677
:1002F0004346BDE8F09F0029A8BF7047401C490055
:1003000008BF20F00100704710B4B0FA80FC00FA7A
:100310000CF050EA010404BF10BC704749B1CCF1A5
:10032000200421FA04F411FA0CF118BF0121214331
:100330000843A3EB0C01CB1D4FEA00614FEA1020EC
:1003400042BF002010BC704700EBC350104400298E
:10035000A4BF10BC7047401C490008BF20F001003A
:1003600010BC704710B5141E73F1000408DA401C6D
:1003700041F1000192185B411A4301D120F00100C4
:1003800010BD2DE9F04D92469B4611B1B1FA81F2B4
:1003900002E0B0FA80F22032904600F00BFA0446F8
:1003A0000F4640EA0A0041EA0B0153465A46084309
:1003B00013D0114653EA010019D0C8F1400250464B
:1003C000FFF7D2FE05460E4650465946424600F01B
:1003D000F1F9084305D0012004E020463946BDE884
:1003E000F08D0020054346EAE0762C4337430A9817
:1003F0006305E40AA0EB08000022FD0A44EA475422
:100400000A3002D500200146E9E7010510196941CB
:10041000DDE9084500196941BDE8F04DA2E72DE985
:10042000FE4F804681EA0300C00F0C46009021F089
:10043000004123F00045B8EB0200A94105D2404637
:10044000214690461C460B46024623F000401043CE
:1004500047D0270DC7F30A00C3F30A510290401A90
:10046000019040286BDAC3F3130040F4801B00981E
:10047000924620B10023D2EB030A63EB0B0B0198E9
:100480005946C0F14002504600F094F906460D4628
:1004900050465946019A00F09CF910EB0800614162
:1004A000002487EA115284EAE7731A4340D0009A85
:1004B00062B3019A012A4FEA075215DC001B61EB77
:1004C00002014FF0004202EA0752CDE90042001C4F
:1004D00041F5801132462B46FFF753FF03B0BDE8CC
:1004E000F08F40462146F9E7001B61EB0201001C3A
:1004F00041F5801300185B412018A2F5001747EB67
:10050000030140EAD570B6196D4111E06D084FEA5C
:10051000360645EAC0754FEA0752001B61EB02013F
:10052000001C41F5801149084FEA30000019514183
:1005300032462B4603B0BDE8F04FFFF713BF0098DB
:10054000012240000023D0EB020263EBE07300982D
:1005500021464FEAE074B8EB000061EB0401E9E7E3
:1005600083F000435BE781F0004158E72DE9FE4F3F
:1005700081EA030404F0004421F0004100944FF0AC
:10058000000B23F0004350EA01045ED052EA03045A
:100590005BD0C3F30A54C1F30A552C44A4F2F334DC
:1005A0000194A0FB0254C1F3130141F48011C3F381
:1005B000130343F4801301FB024400FB034E840A3F
:1005C000970A44EA815447EA8357A4FB07680295D7
:1005D0008D0A05FB07854FEA932C04FB0C54270575
:1005E000029D4FEA065847EA1637B5EB08056EEB51
:1005F000070C870E920E47EA811742EA8312A7FB87
:100600000201B6EB0B0164EB00042B0D43EA0C3343
:100610005E1844EB1C50DA465146E7FB0201C5F375
:1006200013044FEA0B3343EA14534FEA0432019C9C
:1006300043EA0603A4F10C040294009CCDE900B443
:10064000FFF79FFE03B0BDE8F08F00200146F9E7F9
:100650002DE9F04D81EA030404F0004B21F0004540
:1006600014464FF0000A23F0004150EA050220D062
:1006700054EA01021DD0C5F30A570246C5F313031D
:10068000C1F31300C1F30A5640F4801543F48013FC
:10069000A7EB0608101BD64608F2FD3873EB0500E1
:1006A00002D308F1010801E092185B41B8F1000F94
:1006B00003DA00200146BDE8F08D00204FF48011E0
:1006C000064684460EE0171B73EB050705D3121B85
:1006D00063EB050306434CEA010C49084FEA30007E
:1006E00092185B4150EA0107EDD152EA030012D0A3
:1006F00082EA040083EA0501084305D0101BAB41E0
:1007000006D20122002306E000224FF0004302E05F
:100710006FF0010253101AEB06004CEB085110EB7E
:100720000A0041EB0B01BDE8F04DFFF71BBEC1F322
:100730000A52C1F3130140F2FF3341F480119A428F
:1007400002DA00200146704740F233439A42A2F297
:10075000334202DC5242FFF707BD00F02BB8000025
:1007600030B5041E71F1000404DB4FF00044404238
:1007700064EB0101141E73F1000405DB1C464FF00D
:100780000043524263EB0403994208BF904230BDDC
:10079000064C074D06E0E06840F0010394E80700CE
:1007A00098471034AC42F6D3FFF7C6FCF45F00085C
:1007B00014600008202A04DB203A00FA02F100202D
:1007C00070479140C2F1200320FA03F3194390408F
:1007D0007047202A06DBCB17203A41FA02F043EAA1
:1007E000E07306E041FA02F3D040C2F120029140EA
:1007F00008431946704700002DE9F84FF848FA4EB3
:10080000002290F802E0F74BB71490F806B0F74DCD
:1008100041794FF0010A4FF480794FF40068BEF13E
:10082000B00F7DD015DCC478DFF8C4C30079BEF109
:10083000820F42D006DCBEF1020F1AD0BEF1330F98
:1008400013D15EE0BEF1900F6BD0BEF1A00F0CD1C2
:100850009FE0BEF1C00F77D0BEF1D00F75D0BEF1D2
:10086000EE0F73D0BEF1FF0F71D0E2480270BDE809
:10087000F88FBBF10B0FFAD185F801A0AA708CF8A4
:1008800000408CF801008CF802101B880A460146D3
:10089000204600F00FFD03F0A7FB38B128780128AF
:1008A00004D04946304601F0DFF908B900F010FEE7
:1008B000BDE8F84FD0A004F0A1BDBBF10B0FD6D11D
:1008C00085F801A0AA708CF800408CF801008CF823
:1008D00002101B880A460146204600F0CBFC03F0BC
:1008E00083FB38B12878012804D04946304601F00E
:1008F000BBF908B900F0ECFDBDE8F84FC2A004F068
:100900007DBDBBF10B0FB2D185F801A0AA708CF8A8
:1009100000408CF801008CF802101B880A4601E0A8
:100920001BE040E00146204604F06AF803F05CFB5F
:1009300038B12878012804D04946304601F094F9AE
:1009400008B900F0C5FD03E0FBE021E1A2E04EE0C4
:10095000BDE8F84FB0A004F051BDBBF10B0F86D13C
:1009600085F801A0AA701988002003F01BFF03F08E
:100970003BFB38B12878012804D04946304601F0C5
:1009800073F908B900F0A4FDBDE8F84FA9A004F080
:1009900035BDBBF10B0F92D104F0D4F8BDE8F84F90
:1009A000A8A004F02BBDBBF10B0F88D1AB4A10718E
:1009B000517100F037FD1E2001F042F80122394646
:1009C000304601F058F901224146304601F053F912
:1009D0001E2001F035F800223946304601F04BF96F
:1009E00041463046BDE8F84F002201F044B9BBF162
:1009F0000B0F88D100223946304601F03CF9002225
:100A00004146304601F037F9C82001F019F80122BB
:100A10003946304601F02FF901224146304601F0B7
:100A20002AF9C82001F00CF800223946304601F0BE
:100A300022F900224146304601F01DF9C82000F09D
:100A4000FFFF01223946304601F015F901224146E7
:100A5000304601F010F9C82000F0F2FF00223946BC
:100A6000304601F008F900224146304601F003F912
:100A7000C82000F0E5FF01223946304601F0FBF8BE
:100A800001224146304601F0F6F8BDE8F84FC82093
:100A900000F0D6BFBBF10B0F87D1AA7070A004F095
:100AA000ADFC00223946304601F0E5F8002241460F
:100AB000304601F0E0F8C82000F0C2FF01223946BC
:100AC000304601F0D8F801224146304601F0D3F813
:100AD000C82000F0B5FF00223946304601F0CBF8BF
:100AE00000224146304601F0C6F8C82000F0A8FFB9
:100AF00001223946304601F0BEF801224146304617
:100B000001F0B9F8C82000F09BFF002239463046BA
:100B100001F0B1F800224146304601F0ACF8C8209F
:100B200000F08EFF01223946304601F0A4F8012280
:100B30004146304601F09FF8BDE8F84FC82000F06C
:100B40007FBFBBF10B0FA7D14B480170007803F0BA
:100B5000D1FA00F03DFF0C21484802F02BFC0022A6
:100B60003946304601F087F801224146304601F00F
:100B700082F80A2000F064FF01223946304601F075
:100B80007AF841463046BDE8F84F002201F073B8CC
:100B9000BBF10B0FD7D100F075FE642000F050FFC1
:100BA00001223946304601F066F8012241463046BE
:100BB00001F061F8642000F043FF0022394630461E
:100BC00001F059F800224146304601F054F80A205D
:100BD00000F036FF2A48006801684068009046E649
:100BE000540100202A000020000C01404B0000208E
:100BF000120000200C00002030783032206F726428
:100C00006572200A0000000030783832206F72646C
:100C10006572200A000000006D6F746F7220776F9C
:100C2000726B732030783333206F72646572200AE0
:100C3000000000006F726465722030786230200A14
:100C4000000000006E6577206F726967696E207022
:100C5000736F6974696F6E200A00000054000020F1
:100C6000546869732069732030786565206F7264F9
:100C70006572200A0000000024000020F801002016
:100C8000B80100202DE9F04100F0F0FD01282DD140
:100C90000020174C00212154401CC0B20428FAD374
:100CA00004220521124800F025FE0A2000F0C8FEAB
:100CB000104861780170A1784170E17881702078E6
:100CC00002F084FE0546607802F044FE0646A078F5
:100CD00002F05EFE0746E07802F01EFEA9193944D4
:100CE0000144BDE8F04104A004F088BBBDE8F081F8
:100CF0007C0300204800002041312072656164209F
:100D0000454550524F4D20706F736974696F6E3D49
:100D1000202564200A00000005480168054881700C
:100D20000A0A42700A0C027003A004F067BB0000BC
:100D30003C000020480000204132207265616420A0
:100D40007265616C20706F736974696F6E3D2025E8
:100D50006C64200A0000000010B500F087FD012837
:100D600004D102221021054800F0C4FD03490448C3
:100D70004A7882700978417010BD00007C03002021
:100D80004800002010B514488078012814D00428A9
:100D900005D0E02819D011490020087010BD03F0DB
:100DA00073F9044621460EA004F028FB0F48847016
:100DB000BDE8104002F0BCBE0DA004F01FFBFFF721
:100DC000CBFFBDE8104002F0B3BEFFF75BFFBDE80C
:100DD000104002F0ADBE0000540100200D000020C4
:100DE000425256203D202564200A00004800002081
:100DF0005350495F6152784275666665725B325D39
:100E00003D307830310A00002DE9FC5FFE48B0F833
:100E100000B0FF484FF48056DFF8F0C37710FD4C68
:100E200041794FF00008BBF1C00F7BD03BDCDFF80D
:100E3000E8A3FA4B4FF48079BBF1900F73D01ADC22
:100E4000F74DBBF1020F28786978AA786ED0BBF114
:100E5000330F6AD0BBF1820F23D18CF800808AF85F
:100E600000801B8800F006FA4946204600F0FCFE90
:100E700000287CD09DE0BBF1A00F79D0BBF1B00F72
:100E80000FD18CF800808AF800801988002003F0C8
:100E900089FC4946204600F0E7FE002801D100F019
:100EA00017FBBDE8FC9FBBF5817F7CD00FDCBBF15D
:100EB000D00F79D0BBF1FF0F77D0ABF5807BBBF1C2
:100EC000010BEED18CF8008003F05EFAE9E7ABF598
:100ED000807BBBF1030B69D0BBF1010FE1D18CF832
:100EE000008003F0D1F80146CEA004F087FA012279
:100EF0003146204600F0BFFE01223946204600F070
:100F0000BAFE142000F09CFD00223146204600F07D
:100F1000B2FE00223946204600F0ADFE142000F05B
:100F20008FFDBEE712E1A0E000E067E08CF80080F2
:100F30008AF800801B8800F0BDF94946204600F081
:100F400093FE08B900F0C4FA022000F079FD49468A
:100F5000204600F089FE08B900F0BAFA01223146B5
:100F6000204600F088FE00223946204601E01EE0BF
:100F700059E000F080FE022000F062FD4946204664
:100F800000F072FE08B900F0A3FA4946204600F0CE
:100F90006BFE08B900F09CFA85F8008085F80180A6
:100FA00085F802807DE71DE1F5E07EE015E100F0C7
:100FB0008FFA022000F044FD00223146204600F066
:100FC0005AFE01223946204600F055FE4946204689
:100FD00000F04AFE08B900F07BFA022000F030FD74
:100FE0004946204600F040FE08B900F071FA85F845
:100FF000008085F8018085F8028052E78CF8008037
:101000008AF800801B8803F0FBFC4946204600F06C
:101010002BFE08B900F05CFA85F8008085F80180A5
:1010200085F802803DE78CF8008003F08BFD1E20E0
:1010300000F006FD01223146204600F01CFE012290
:101040003946204600F017FE1E2000F0F9FC002271
:101050003146204600F00FFE00223946204600F0BF
:101060000AFE0A2000F0ECFC1BE78CF800800079F7
:1010700000F0D8F91E2000F0E3FC012231462046A2
:1010800000F0F9FD01223946204600F0F4FD1E2053
:1010900000F0D6FC00223146204600F0ECFD002294
:1010A0003946204600F0E7FDFBE68CF80080002280
:1010B0003146204600F0DFFD00223946204600F090
:1010C000DAFDC82000F0BCFC01223146204600F0C9
:1010D000D2FD01223946204600F0CDFDC82000F0A7
:1010E000AFFC00223146204600F0C5FD0022394603
:1010F000204600F0C0FDC82000F0A2FC01223146CD
:10110000204600F0B8FD01223946204600F0B3FD2C
:10111000C82000F095FC00223146204600F0ABFDCF
:1011200000223946204600F0A6FDC82000F088FCC9
:1011300001223146204600F09EFD0122394620461C
:1011400000F099FDC82000F07BFCAAE68CF8008036
:1011500037480170007802F0CDFF00F039FC0C2117
:10116000344802F027F900223146204600F083FD82
:1011700001223946204600F07EFD0A2000F060FC86
:1011800001223146204600F076FD002239462046F5
:1011900000F071FD85E68CF8008000F073FB0A20FA
:1011A00000F04EFC01223146204600F064FD012291
:1011B0003946204600F05FFD0A2000F041FC002285
:1011C0003146204600F057FD00223946204600F007
:1011D00052FD0A2000F034FC63E68CF8008000F039
:1011E000B7FA5EE68CF80080684600F0A8F9FFF7D1
:1011F0000CF8044602460E460B460FA004F0FEF81B
:101200004FF47A75284627E0100000200A000020DD
:1012100054000020000C01400B0000202A00002098
:1012200012000020425256203D202564200A000072
:1012300024000020F8010020BBF1C8A1B8C3D0F2FF
:10124000C1D0BAC5C6F7BCFEB5C4CEC2B6C8A3BA33
:10125000252E31660A00000000F0F2FB22463346DC
:10126000AFF22C0004F0CAF8284600F0E9FB18E6BB
:10127000FEE7000070B51E46000440EA0125154354
:10128000094C2078002808D12320207000F046F86F
:101290000649086006490860606031462846BDE896
:1012A000704003F0BDBA00001C0000203C0000208C
:1012B0004000002070B51E46000440EA012414439B
:1012C000094D2878002808D12320287000F026F83E
:1012D0000649086006490860686031466042BDE81A
:1012E000704003F09DBA00001C0000203C0000206C
:1012F0004000002010B500F0B9FA012809D10222FF
:101300001021054800F0F6FA03484178007841EAD8
:101310000024204610BD00007C0300202DE9F04190
:1013200000F0A4FA01281ED1042205210F4800F084
:10133000E1FAC82000F084FB0C4C207802F046FB58
:101340000746607802F006FB0546A07802F020FB15
:101350000646E07802F0E0FA05490D704E7088709C
:10136000791931440C182046BDE8F0817C03002037
:10137000480000202DE9F04120480168CCB2016806
:10138000C1F307250168C1F307460068070E00F0A6
:101390006DFA01282FD10020194B1A4900221A5446
:1013A0000A54401CC0B20428F9D30F704E708D70DF
:1013B000CC7004220521134800F0D1FA0446C8205D
:1013C00000F03EFB012C04D0BDE8F0410EA004F07B
:1013D00015B8134D4FF4006400222146284600F052
:1013E0004AFC0A2000F02CFB21462846BDE8F041CB
:1013F000012200F040BCBDE8F08100003C0000206C
:101400007C0300207C020020656570726F6D206394
:101410006865636B206572726F72200A00000000BD
:10142000000C01402DE9F04106460F4600F01EFA7F
:10143000012844D1234C002020706070224D2E7072
:101440006F7002221021284600F089FA642000F013
:10145000F7FA02221021204600F04CFA00224FF445
:1014600000611A4E4F00A05CAB5C984209D000228C
:10147000304600F000FC00223946304600F0FBFB0D
:10148000FEE7521CD2B2022AEDD318D100220C463C
:10149000304600F0F0FB00223946304600F0EBFB0E
:1014A000C82000F0CDFA01222146304600F0E3FBCF
:1014B00039463046BDE8F041012200F0DCBBBDE812
:1014C000F08100007C0300207C020020000C014021
:1014D00010B51149012008700021104801F0B4FE38
:1014E000002211460E4803F0E5FC0C496FF00200A3
:1014F00009680861FFF73EFF0A4C00224FF4804163
:10150000204600F0B8FB00226114204600F0B3FB37
:10151000BDE8104000F01CB91C0000204002002073
:10152000002C0140000C014006E00021491CC9B21A
:101530000A29FBD3401E80B20028F6D1704770B54F
:10154000054600F038F80024285D00F0CDF8641C52
:10155000E4B2082CF8D3442000F0C6F800F02BF8D1
:101560000024285D00F0C0F8641CE4B2082CF8D315
:10157000BE2000F0B9F800F08FF8044600F08CF8B7
:10158000000200B220436FF0030400280ADAC043CF
:10159000401CFEF729FE2246FEF70FFEBDE8704014
:1015A000FEF746BEFEF720FE2246FEF706FEBDE829
:1015B0007040FEF73DBE10B500F07CF800F022F858
:1015C000BDE81040552000F08FB800001FB5022084
:1015D000009000200190012002906946014800F02F
:1015E0003BFA1FBD000801401FB5022000900120FA
:1015F0000190032003906946014800F02DFA1FBDB9
:101600000008014070B50024FFF7E0FF124D04E030
:10161000641CE4B20120FFF787FF0221284600F096
:1016200023FB08B1642CF3D3642C01D3012070BDDB
:10163000002404E0641CE4B20120FFF775FF0221DE
:10164000284600F011FB08B9F02CF3D3F02C01D39D
:10165000012070BD002070BD0008014010B5FFF7EB
:10166000C3FF0C4C00220221204600F004FB0A209C
:10167000FFF75AFFFFF7AAFF0221204600F0F4FA15
:10168000012805D000242D20FFF74EFF204610BD75
:101690000124F8E70008014070B500250024FFF799
:1016A000DDFFA0402843C5B2641CE4B2082CF6D389
:1016B000284670BD10B5FFF797FF0A4C00220221A3
:1016C000204600F0D8FA40F2EE20FFF72DFF01226D
:1016D0000221204600F0CFFABDE810400F20FFF7AE
:1016E00023BF00000008014070B50546FFF77CFFEE
:1016F0000024154E05F001006D0880B10022022182
:10170000304600F0B8FA0820FFF70EFF0122022150
:10171000304600F0B0FA3A20FFF706FF0FE0002253
:101720000221304600F0A7FA4620FFF7FDFE012215
:101730000221304600F09FFA0220FFF7F5FE641CFC
:10174000E4B2082CD6D370BD00080140FEE70000CB
:101750002DE9FC412DA003C8CDE900012D48016809
:101760002D480278002A17D08DF804100A0A8DF847
:1017700003200A0C8DF80220446828A003F03EFEE6
:1017800021462CA003F03AFE0C23062269462E487F
:1017900002F054F8BDE8FC8100F068F80128F9D1A6
:1017A00000202A4C00212154401CC0B20428FAD346
:1017B00004220521254800F09DF8C82000F040F9DA
:1017C000E0788DF80400A0788DF8030060788DF83B
:1017D0000200207802F0FAF80546607802F0BAF8C4
:1017E0000646A07802F0D4F80746E07802F094F8B4
:1017F000A9193944014416A003F000FE0C23062267
:101800006946114802F01AF8C4E70000A10300007D
:10181000000B00003C0000201C0000207265616C81
:1018200020706F736974696F6E3D20256C64200AA7
:1018300000000000737465705F6E756D6265727391
:101840003D202564200A0000B80100207C03002010
:10185000454550524F4D207265616C20706F736921
:1018600074696F6E3D20256C64200A0010B5A020BD
:1018700002F0EAF818B102F071FA002010BD012060
:1018800010BD000070B5FFF7F1FF012814D1002052
:101890001449154A00240C541454401C80B20A28E0
:1018A000F9D309220021104800F059F805460F48E5
:1018B0000460642000F0C4F8012D00D0FEE70C4D58
:1018C0004FF4006400222146284600F0D4F9142089
:1018D00000F0B6F821462846BDE87040012200F02D
:1018E000CAB900007C0300207C0200203C000020DC
:1018F000000C01402DE9F04105460C46164602F069
:101900000DFAA02002F0D8F902F040FA68B9E0B26E
:1019100002F0D2F902F03AFA38B902F0FFF9A12048
:1019200002F0CAF902F032FA20B102F017FA0020F0
:10193000BDE8F0810024771E0BE002F099F92855EC
:10194000BC4202D002F060F801E002F075F9641CBC
:10195000A4B2B442F1D302F001FA0120E8E72DE984
:10196000F04780460E46914600254FF47A7729E0ED
:101970000DB1700716D102F0F1F9002402F0CEF992
:10198000A02002F099F902F001FA18B1641CA4B287
:10199000BC42F3D3BC420CD0F0B202F08DF902F09D
:1019A000F5F930B918F8050002F086F902F0EEF901
:1019B00020B102F0D3F90020BDE8F087761CB6B262
:1019C0006D1CADB24D45D3D302F0C8F90120F3E749
:1019D00010B58EB0184817490160082141600024F5
:1019E00084606421C160046101F08CFA4FF480507E
:1019F0000A900AA9104801F0D0FA0894099408A99D
:101A00000D4801F057FA602001900C4800780290D0
:101A100003940594002201A9074801F05DFC0C2203
:101A200001A9054801F058FC034801F03DFB0EB048
:101A300010BD000000080040F80100202400002034
:101A400031B500F01FF9044600F01CF90099001BA5
:101A50008842F9D338BD00002DE9F84F0023002457
:101A6000DFF8DC914FF00F0809F1040A0AF1040BCA
:101A70000BF1040E0127A7400A683A40BA4275D11B
:101A8000DFF8C0C14D68A5EB0C0665452BD00DDC19
:101A9000032D34D005DC35B3012D19D0022D2FD103
:101AA0001BE0112D16D0122D2AD119E0B6F5881F92
:101AB00019D006DCB6F5803F15D0B6F5801F1FD1D2
:101AC00011E0B6F5001F0ED0B6F5041F18D10AE0DC
:101AD000CB6815E0CB681B1D12E0CB6808330FE024
:101AE000CB680C330CE08B6823B1012B04D00823A6
:101AF000476105E0042303E00823076100E00023B9
:101B0000FF2A01D8054601E000F1040502D84FEA9A
:101B1000840603E0A4F108064FEA86062F6808FA57
:101B200006FC27EA0C0703FA06F647EA06072F60C9
:101B30004D68ED007ED5444DAE6946F00106AE61BC
:101B4000AD6905F001050095404D24F003067719B5
:101B5000BE68A5072D0F08FA05FC26EA0C06DFF87B
:101B6000F0C0604503D14FF0000C25E062E0DFF8E3
:101B7000E4C0604502D14FF0010C1DE0DFF8D8C091
:101B8000604502D14FF0020C16E0DFF8D0C060458E
:101B900002D14FF0030C0FE0DFF8C4C0604502D162
:101BA0004FF0040C08E0DFF8BCC0604502D14FF0F4
:101BB000050C01E04FF0060C0CFA05FC4CEA060C93
:101BC000C7F808C04D68ED0305D5D9F80050154396
:101BD000C9F8005004E0D9F800509543C9F8005006
:101BE0004D68AD0305D5DAF800501543CAF800502A
:101BF00004E0DAF800509543CAF800504D68ED0251
:101C000005D5DBF800501543CBF8005004E0DBF8B5
:101C100000509543CBF800504D68AD0205D5DEF875
:101C200000501543CEF8005004E0DEF80050954314
:101C3000CEF80050641C102CFFF41CAFBDE8F88FE8
:101C4000000401400000111000100240000001409B
:101C500000080140000C0140001001400014014048
:101C600000180140001C01408068084201D001209A
:101C7000704700207047002A01D0016170470904B5
:101C800001617047014800687047000004000020AF
:101C900070B50446002C04D094F83500002510B12E
:101CA00006E0012070BD84F83450204600F0D2F8E0
:101CB000242084F835002068016821F001010160CA
:101CC00000F000FB01461B48B1FBF0F022685060B9
:101CD000194B62689A4201D8401C07E04FF4967293
:101CE00050434FF47A72B0FBF2F0401C226810624D
:101CF000204601F0B9FE2168C861D4E90701084314
:101D000021680860D4E90310084321688860D4E999
:101D1000050108432168C8602068016841F001019D
:101D20000160A563202084F8350084F83650002037
:101D300070BD000040420F00A08601002DE9F8436D
:101D40000446DDF82080894616461D4694F8350085
:101D5000202802D00220BDE8F88356B14DB142F2EE
:101D6000107301223A49204602F05BF818B10220B4
:101D7000F1E70120EFE794F8340001281CD001209E
:101D800084F834002068016821F40061016021209A
:101D900084F83500102084F836000027A7634246F7
:101DA0004946204601F002FF60B1A06B042805D02F
:101DB00084F834700320CEE70220CCE784F8347036
:101DC0000120C8E7206841698069009021E0414610
:101DD000204602F0C6F858B1A06B042801D00320B9
:101DE000B9E72068016841F4007101600120B2E7A1
:101DF000216816F8010B08616D1EADB220684169BB
:101E0000C943490705D425B116F8011B01616D1EB0
:101E1000ADB2002DDBD14146204601F0DBFF58B1C9
:101E2000A06B042801D0032095E72068016841F4E5
:101E30000071016001208EE72068016841F40071A3
:101E40000160202084F8350084F83470002082E797
:101E50000200100000B585B00068104988421AD110
:101E60000F48C16941F40011C161C16901F4001159
:101E70000091816941F008018161806900F00800EA
:101E80000090C0200190122002900320049001A92C
:101E90000448FFF7E1FD05B000BD0000005400401C
:101EA00000100240000C014002480168491C01601A
:101EB000704700000400002010B50748016841F099
:101EC00010010160052000F075F8002000F006F810
:101ED00000F016F8002010BD0020024010B50446A6
:101EE00000F0D6F94FF47A72B0FBF2F000F0A9FFDF
:101EF00000222146501E00F03DF8002010BD0000D9
:101F000008B51548816941F001018161806900F0DF
:101F100001000090052000F04DF8002211466FF0FE
:101F20000B0000F027F8002211466FF00A0000F0C5
:101F300021F8002211466FF0090000F01BF8002282
:101F40001146101F00F016F80022BDE808401146A7
:101F5000501E00F00FB800000010024000F01F02F9
:101F6000012191404009800000F1E020C0F80011FB
:101F700070470000F0B40D460D4B1B68C3F30223FD
:101F8000C3F10704042C00D90424191D072901D228
:101F9000002300E0DB1E012606FA04F1491E294059
:101FA00099409E40761E16403143F0BC02F0DBB9EA
:101FB0000CED00E000F00701054A10684FF6FF0342
:101FC000184040EA012003490843106070470000B0
:101FD0000CED00E00000FA052DE9F04704460F463D
:101FE000DFF8A492D9F80000A84D00F00701012005
:101FF000430446064FF0020C41F28838B9426FD2D2
:10200000D9F8001021F007013943C9F80010D9F8B8
:10201000001001F00701B94201D0BDE8F087217836
:10202000890705D56968A26821F0F001114369604C
:102030002178C90761D0616801290BD002291FD01E
:102040009CFAACF2B2FA82F242F0200252092DD090
:102050002A682CE093FAA3F2B2FA82F242F020024C
:10206000520901D02A6800E06A6A93FAA3F3B3FA2E
:1020700083F303F01F039840024223D10120CCE7F1
:1020800096FAA6F2B2FA82F242F02002520901D088
:102090002A6800E06A6A96FAA6F3B3FA83F303F0BB
:1020A0001F03984002420DD10120B6E76A6A9CFAEC
:1020B000ACF3B3FA83F303F01F039840024201D15B
:1020C0000120AAE7686820F0030008436860FFF772
:1020D000D9FD0646606801280AD0022815D021E003
:1020E00025E0FFF7CFFD801B404501D9032094E791
:1020F0006868C0F381000128F3D1ADE0FFF7C2FDAD
:10210000801B404501D9032087E76868C0F3810040
:102110000228F3D1A0E0FFF7B5FD801B404501D9AF
:1021200003207AE7686810F00C0FF4D194E021786E
:10213000890705D56968A26821F0F001114369603B
:102140002178C90779D0616801290BD002291FD0F5
:102150009CFAACF2B2FA82F242F0200252092DD07F
:102160002A682CE093FAA3F2B2FA82F242F020023B
:10217000520901D02A6800E06A6A93FAA3F3B3FA1D
:1021800083F303F01F039840024223D1012044E768
:1021900096FAA6F2B2FA82F242F02002520901D077
:1021A0002A6800E06A6A96FAA6F3B3FA83F303F0AA
:1021B0001F03984002420DD101202EE76A6A9CFA63
:1021C000ACF3B3FA83F303F01F039840024201D14A
:1021D000012022E7686820F0030008436860FFF7E9
:1021E00051FD06466068012809D0022814D020E07D
:1021F000FFF748FD801B404501D903200DE76868C3
:10220000C0F381000128F3D117E0FFF73BFD801BED
:10221000404501D9032000E76868C0F38100022827
:10222000F3D10AE0FFF72EFD801B404501D90320C2
:10223000F3E6686810F00C0FF4D1D9F8000020F034
:1022400007003843C9F80000D9F8000000F0070083
:10225000B84201D00120E0E62078400705D5686843
:10226000E16820F4E060084368602078000706D544
:102270006868216920F4605040EAC100686000206D
:10228000FFF72CFE0020C8E60020024000100240AC
:1022900000B500F043F808494968F02292FAA2F22A
:1022A00001F0F001B2FA82F2D140044A515CC84018
:1022B0000349086000BD000000100240D45F000820
:1022C0000000002000B5FFF7E3FF074949684FF41D
:1022D000E06292FAA2F201F4E061B2FA82F2D14035
:1022E000024A515CC84000BD00100240D45F0008A3
:1022F00000B5FFF7CDFF074949684FF4605292FAE5
:10230000A2F201F46051B2FA82F2D140024A515C69
:10231000C84000BD00100240D45F000810B585B071
:102320001AA0D0E90031D0E90220CDE90131CDE990
:1023300003201AA000680090194B5968194801F051
:102340000C02042A1DD0082A1BD14FF4701494FAF1
:10235000A4F401F47012B4FA84F4E24001ACA25C7B
:10236000C90310D559684FF4003393FAA3F301F46D
:102370000031B3FA83F3D9401DF80110B0FBF1F03E
:10238000504305B010BD08485043FAE70203040566
:10239000060708090A0B0C0D0E0F101001020000B1
:1023A0000010024000127A0000093D002DE9F84FAC
:1023B0000446F94D20784FF00106C00775D06868D3
:1023C0007704C0F38100012807D06868C0F381005A
:1023D00002281DD16868C0031AD597FAA7F0B0FA91
:1023E00080F040F02000400901D0286800E0686AD1
:1023F00097FAA7F1B1FA81F101F01F0206FA02F192
:10240000084252D0606800284FD10120BDE8F88F03
:10241000286820F480302860286820F48020286014
:10242000FFF730FC804607E0FFF72CFCA0EB08002C
:10243000642801D90320E9E797FAA7F0B0FA80F001
:1024400040F02000400901D0286800E0686A97FA4F
:10245000A7F1B1FA81F101F01F0106FA01F108427A
:10246000E2D16068B0F5803F11D0A8B1B0F5A02FDF
:102470001CD0286820F480302860286820F4802050
:1024800028606068C8B3FFF7FDFB80461FE028683E
:1024900040F480302860F4E7286820F48030286019
:1024A000286820F480202860EBE748E0286840F4A2
:1024B00080202860286840F480302860E1E7FFF73A
:1024C000E1FBA0EB0800642801D903209EE797FAFE
:1024D000A7F0B0FA80F040F02000400901D0286851
:1024E00000E0686A97FAA7F1B1FA81F101F01F01E3
:1024F00006FA01F10842E2D021E0FFE7FFF7C2FB54
:10250000804607E0FFF7BEFBA0EB0800642801D976
:1025100003207BE797FAA7F0B0FA80F040F02000A4
:10252000400901D0286800E0686A97FAA7F1B1FA7B
:1025300081F101F01F0106FA01F10842E2D1207891
:10254000DFF8588280074FF0000B4FF0020732D5BA
:1025500068684FF0F80A10F00C0F07D06868C0F3F5
:102560008100022828D16868C00325D497FAA7F013
:10257000B0FA80F040F02000400901D0286800E067
:10258000686A97FAA7F1B1FA81F101F01F0106FA22
:1025900001F1084204D02069012801D0012035E76B
:1025A00028689AFAAAF26169B2FA82F220F0F80079
:1025B0009140084328605CE0206990B396FAA6F049
:1025C000B0FA80F048F82060FFF75CFB814607E036
:1025D000FFF758FBA0EB0900022801D9032015E7FB
:1025E00097FAA7F0B0FA80F040F02000400901D03F
:1025F000286800E0686A97FAA7F1B1FA81F101F062
:102600001F0106FA01F10842E2D028689AFAAAF2FC
:102610006169B2FA82F220F0F80091400843286024
:1026200027E0FFE796FAA6F0B0FA80F048F820B06D
:10263000FFF728FB814607E0FFF724FBA0EB09002A
:10264000022801D90320E1E697FAA7F0B0FA80F05A
:1026500040F02000400901D0286800E0686A97FA3D
:10266000A7F1B1FA81F101F01F0106FA01F1084268
:10267000E2D12078000770D5A069C0B396FAA6F021
:10268000B0FA80F008EB8000C0F88064FFF7FAFA37
:10269000814607E0FFF7F6FAA0EB0900022801D90E
:1026A0000320B3E697FAA7F0B0FA80F040F060009C
:1026B000B6EB501F01D128680BE097FAA7F0B0FAEB
:1026C00080F040F06000B7EB501F01D1286A00E0B5
:1026D000686A97FAA7F1B1FA81F101F01F0206FAD0
:1026E00002F10842D6D00120FFF7AAF935E0FFE752
:1026F00096FAA6F0B0FA80F008EB8000C0F880B43B
:10270000FFF7C0FA814607E0FFF7BCFAA0EB09002B
:10271000022801D9032079E697FAA7F0B0FA80F0F1
:1027200040F06000B6EB501F01D128680BE097FA2B
:10273000A7F0B0FA80F040F06000B7EB501F01D175
:10274000286A00E0686A97FAA7F1B1FA81F101F00E
:102750001F0206FA02F10842D6D12078400770D550
:10276000E86940F08050E861E86900F0805000902E
:10277000DFF82CA0DAF8000040F48070CAF80000FE
:10278000FFF780FA81460DE0FFF77CFAA0EB090025
:10279000642807D9032039E60010024000004242B5
:1027A00000700040DAF80000C005EDD5286A20F07E
:1027B00001002862286A20F004002862FFF762FA0C
:1027C000814641F2883A07E0FFF75CFAA0EB090086
:1027D000504501D9032019E697FAA7F0B0FA80F026
:1027E00040F04000B6EB501F01D128680BE097FA8B
:1027F000A7F0B0FA80F040F04000B7EB501F01D1D5
:10280000286A00E0686A97FAA7F1B1FA81F101F04D
:102810001F0106FA01F10842D6D1E068012811D063
:10282000A8B105281CD0286A20F001002862286A77
:1028300020F004002862E068C8B3FFF723FA81465D
:102840001FE06EE0286A40F001002862F3E7286A82
:1028500020F001002862286A20F004002862EAE7DC
:10286000286A40F004002862286A40F001002862CB
:10287000E1E7FFF707FAA0EB0900504501D9032073
:10288000C4E597FAA7F0B0FA80F040F04000B6EB4C
:10289000501F01D128680CE097FAA7F0B0FA80F039
:1028A00040F04000B7EB501F02D1286A01E00BE076
:1028B000686A97FAA7F1B1FA81F101F01F0206FAEE
:1028C00002F10842D5D02CE0FFF7DCF9814607E0A1
:1028D000FFF7D8F9A0EB0900504501D9032095E591
:1028E00097FAA7F0B0FA80F040F04000B6EB501F26
:1028F00001D128680BE097FAA7F0B0FA80F040F019
:102900004000B7EB501F01D1286A00E0686A97FACF
:10291000A7F1B1FA81F101F01F0206FA02F10842B3
:10292000D6D1E06980B36968C1F38101022970D012
:102930004FF080794FF00077022809D099FAA9F07A
:10294000B0FA80F048F820B0FFF79CF9044668E040
:1029500099FAA9F0B0FA80F048F820B0FFF792F9A0
:10296000824607E0FFF78EF9A0EB0A00022801D9A2
:1029700003204BE597FAA7F0B0FA80F040F0200072
:10298000400902D0286801E060E0686A97FAA7F180
:10299000B1FA81F101F01F0106FA01F10842E1D11B
:1029A000206AB0F5803F05D16868A16820F4003046
:1029B00008436860D4E908010843696821F4741188
:1029C0000843686099FAA9F0B0FA80F048F82060EE
:1029D000FFF758F9044606E0FFF754F9001B0228F8
:1029E00001D9032012E597FAA7F0B0FA80F040F081
:1029F0002000400901D0296800E0696A97FAA7F031
:102A0000B0FA80F000F01F0006FA00F00142E3D0B7
:102A10001CE01DE0FFF736F9001B022801D9032056
:102A2000F4E497FAA7F0B0FA80F040F020004009F3
:102A300001D0296800E0696A97FAA7F0B0FA80F03F
:102A400000F01F0006FA00F00142E3D10020DDE4AF
:102A50000120DBE4704708B501684A68D24352069A
:102A60000CD48A68D243D20708D18A68D24352066E
:102A700004D5816C01B05DF804EB08474A68D24385
:102A8000120608D48A68D243920704D4C16C01B0FC
:102A90005DF804EB08474A68D243920635D48A6849
:102AA000D243D20606D4426D42F0020242656FF074
:102AB00010028A6001688A68D243920609D4426D86
:102AC00042F0010242658A680A6822F040020A6008
:102AD000009201688A68D24352060AD490F85120C5
:102AE000122A06D0426D42F004024265CA688A6822
:102AF0000092426D002A08D04A6822F0E0024A6043
:102B0000012180F85110FFF7A5FF08BD10B504465C
:102B1000002C03D094F8510010B104E0012010BD46
:102B2000204600F039F8022084F85100206801683E
:102B300021F040010160D4E901010843D4E9031206
:102B40001143084361690843218B01F40071084374
:102B5000E1690843216A0843A16A084321680860C3
:102B6000A069042101EA1040616A084321684860B5
:102B70002168E06A08612068C16921F40061C161CF
:102B80000449002008706065012084F8510000208D
:102B900010BD00000800002030B585B00068244951
:102BA000884242D12348816941F480518161816921
:102BB00001F480510091816941F0040181618169D2
:102BC00001F004010091816941F004018161806993
:102BD00000F004000090A020019002200290032049
:102BE0000490154D01A92846FEF736FF40210191BA
:102BF00000240294039401A92846FEF72DFF012228
:102C000010212846FFF737F8102101910294012185
:102C1000039101A92846FEF71FFF0022012123206E
:102C2000FFF7A8F92320FFF799F905B030BD0000A0
:102C300000300140001002400008014010B490F83C
:102C40005130012B02D0022010BC7047D9B1D2B153
:102C500090F85030012B18D0012380F850302223F7
:102C600080F8513000234365214C8464816382875E
:102C7000C287C36403638386C3868468B4F5004F48
:102C800005D054B10DE00120DEE70220DCE7016849
:102C90000A6822F480420A6003E04468B4F5827F47
:102CA00004D0816AB1F5005F07D010E080F85030A1
:102CB000134610BC0A4600F05DB801680A6822F4A9
:102CC00000520A6001680A6842F400520A60016812
:102CD0004A6842F060024A6080F85030006801683B
:102CE000490603D4016841F0400101600020ABE7D0
:102CF0007145000810B51448144B0178A22910D072
:102D000000209870072210491148FFF797FF11A083
:102D100002F074FBBDE8104007220B490C48FFF796
:102D20008DBF01229A7041780748807831B101291E
:102D300003D1DA70032800D11A7110BD0028FCD12C
:102D40000B48027010BD0000540100200A00002052
:102D5000B80400205350495F726563656976652049
:102D600064617461206572726F72200A0000000055
:102D70004B00002030B590F85140012C0BD0446836
:102D8000B4F5827F05D184681CB990F85140222C9B
:102D900001D0022030BD01B3FAB1F3B190F8504038
:102DA000012C1CD0012480F8504090F85140222C76
:102DB00002D0322480F8514000244465164DC56489
:102DC00001638386C3861549816482638387C387D1
:102DD000816AB1F5005F04D00DE0012030BD022012
:102DE00030BD01680A6822F400520A6001680A686E
:102DF00042F400520A6001684A6842F0E0024A6008
:102E000080F8504000680168490603D4016841F029
:102E100040010160002030BD4546000825440008FF
:102E2000704770474FF0E021042804D0086920F073
:102E3000040008617047086940F0040008617047A9
:102E4000704710B5401EB0F1807F01D3012010BD46
:102E50004FF0E02460610F21601701F084FA002038
:102E6000A06107202061002010BD10B5FFF7E8FF2A
:102E700010BD30B590F83820012A19D0012200F891
:102E8000382F02234370D1E900342343D1E90245AE
:102E90002C4323430C6923434C69896923430B4327
:102EA00050F8381C4B64427000210170002030BD86
:102EB000022030BD30B590F83820012A20D00123FF
:102EC00080F83830022280F839200268546824F0F3
:102ED00070045460026854680D682C4354600268A2
:102EE000946824F0800494600268946849680C43F4
:102EF000946080F83930002180F83810002030BD0F
:102F0000022030BD10B50446002C03D094F83900DF
:102F100010B107E0012010BD002084F838002046E1
:102F200000F00CF8022084F83900211D206801F01F
:102F30007DFF012084F83900002010BD08B50D4B3D
:102F400002680D499A4207D18A6942F400628A6197
:102F50008A6902F4006200920068084A904207D130
:102F6000C86940F00400C861C86900F0040000901E
:102F700008BD0000002C0140001002400008004085
:102F8000022180F8391001680A6842F001020A60E3
:102F9000012180F839100020704770B5044694F87C
:102FA0003800012817D0012584F83850022084F811
:102FB00039002068826822F0770222F47F42826022
:102FC000086850283AD00DDC20285FD005DCA0B37B
:102FD000102864D155E0022070BD30285BD0402815
:102FE0005DD13FE0602833D070280CD0B0F5805F11
:102FF00003D0B0F5005F52D113E02068816821F062
:10300000070181604BE0CB68D1E90121206801F024
:103010005CFF2068816821F0770141F077018160D1
:103020003DE0CB68D1E90121206801F04EFF206826
:10303000816841F48041816031E01DE0CA684968DF
:10304000206802F025F85021206801F048FF26E0B2
:10305000CA684968206802F02CF86021206801F0F5
:103060003EFF1CE0CA684968206802F011F8402160
:10307000206801F034FF12E00021206801F02FFFEA
:103080000DE01021206801F02AFF08E020212068CF
:1030900001F025FF03E03021206801F020FF3834E3
:1030A00065700020207070BD00B585B000680C49C7
:1030B000884213D10B48816941F008018161806920
:1030C00000F0080000904FF4007001900220029080
:1030D0000320049001A90448FEF7BEFC05B000BD22
:1030E0000008004000100240000C014070B504468A
:1030F00094F8380001280DD0012584F838500220BA
:1031000084F8390042B1042A0AD0082A0CD00C2ACB
:1031100011D10DE0022070BD206801F0E9FE0AE047
:10312000206801F019FF06E0206801F04FFF02E07F
:10313000206801F083FF383465700020207070BD76
:1031400010B50446002C03D094F8390010B107E004
:10315000012010BD002084F83800204600F00CF853
:10316000022084F83900211D206801F05FFE012053
:1031700084F83900002010BD7047000010B50446E7
:103180000029226806D0042909D008290CD00C296E
:1031900013D10EE0D06840F00200D0600DE0D0689E
:1031A00040F00400D06008E0D06840F00800D06033
:1031B00003E0D06840F01000D0600122206801F0E8
:1031C00079FE09492068884202D00849884203D123
:1031D000416C41F4004141642068016841F0010103
:1031E0000160002010BD0000002C014000340140AF
:1031F00010B504460022206801F05CFE104841F240
:10320000111221689310814202D00E48814209D1E7
:10321000086A104206D1086A184203D1486C20F4AB
:10322000004048642068016A114206D1016A1942CF
:1032300003D1016821F001010160002010BD0000F0
:10324000002C01400034014010B5044600292268DA
:1032500006D0042909D008290CD00C2913D10EE07E
:10326000D06820F00200D0600DE0D06820F00400AB
:10327000D06008E0D06820F00800D06003E0D0689B
:1032800020F01000D0600022206801F013FE1048EA
:1032900041F2111221689310814202D00D488142FF
:1032A00009D1086A104206D1086A184203D1486C55
:1032B00020F4004048642068016A114206D1016A86
:1032C000194203D1016821F001010160002010BD05
:1032D000002C01400034014070B504460D4694F8BE
:1032E000380001280DD0012684F83860022084F8C7
:1032F000390042B1042A1AD0082A2DD00C2A53D101
:103300003EE0022070BD2946206801F0F1FD2068F2
:10331000816941F0080181612068816921F004011F
:103320008161206881692A69114381613CE02946F5
:10333000206801F011FE2068816941F4006181611B
:103340002068816921F480618161206881692A692E
:1033500041EA0221816127E02946206801F036FE1A
:103360002068C16941F00801C1612068C16921F08C
:103370000401C1612068C1692A691143C16113E078
:103380002946206801F05AFE2068C16941F40061B5
:10339000C1612068C16921F48061C1612068C1698F
:1033A0002A6941EA0221C161383466700020207028
:1033B00070BD000010B504460122206801F07AFDBE
:1033C00008482168814202D00748814203D1486CF5
:1033D00040F4004048642068016841F00101016048
:1033E000002010BD002C014000340140704738B56A
:1033F000044620680168C1F30001C26802F48072CB
:10340000002904D01AB1E16B41F00101E1630168C8
:10341000C1F34002416901F0010122B119B1E26B2F
:1034200042F00402E2630268C2F3800222B119B1E1
:10343000E26B42F00202E2630268C2F3C00222B110
:1034400019B1E16B41F00801E1630168C1F340117A
:10345000C06800F0200019B110B1204601F050FE04
:1034600020680168C1F3C011C06800F0800019B184
:1034700010B1204601F022FF20680168C1F38011DD
:10348000C06800F0400019B110B1204601F023FEE1
:10349000E06B002809D02068016840680090012096
:1034A00084F839002046FFF7A1FF38BD70B5044607
:1034B000002C04D094F83900002510B106E001205A
:1034C00070BD84F83850204600F020F8022084F8BF
:1034D00039002068C16821F40051C160204601F024
:1034E00067FE2068016921F490410161206841690B
:1034F00021F02A0141612068C16841F40051C16096
:10350000E563012084F83900002070BD10B586B055
:103510000068114988421DD11048816941F48041F9
:103520008161806900F4804001904FF40070029046
:103530000220039003200590094C02A92046FEF7C3
:103540008BFA2115029100210391049102A92046D2
:10355000FEF782FA06B010BD0038014000100240AC
:103560000008014090F83930012B03D0122B01D014
:103570000220704731B32AB390F83830012B23D0A2
:10358000012380F8383081628285C2850021C163C1
:1035900090F83920122A19D0222280F8392080F898
:1035A00038100168CA6842F48072CA6001684A69CA
:1035B00042F001024A610068C16841F02001C16027
:1035C000002070470120704702207047322280F8A7
:1035D0003920E4E72DE9F84F92480125056000F015
:1035E00003FDDFF844822C0240B1904800780128A6
:1035F00004D021464046FEF737FB08B9FDF768FFC7
:1036000007228B498B48FFF7ADFF002873D1214675
:103610004046FEF729FB08B9FDF75AFF844F38787A
:10362000A12868D17878834C834E002824D1B978BA
:10363000A02972D00EDC06F1080233291DD004DC6B
:10364000002975D00229F1D133E0822942D0902996
:1036500012D151E0B02921D0C0297DD0D0297CD011
:10366000FF2909D1B8790B2806D13570FF20F080E9
:10367000206801684068009097E0B8790B280CD169
:103680003570F878107038795070787990703320F0
:10369000F080206801684068009086E0B8790B28C7
:1036A00006D13570B020F080206801684068009035
:1036B0007BE0B8790B2878D13570F87810703879BC
:1036C0005070787990700220F0802068016840681E
:1036D00000906AE0B8790B2867D13570F8781070DF
:1036E00038795070787990708220F0802068016875
:1036F0004068009059E06FE0B8790B2855D13570DB
:1037000038795070787990709020F0802068016846
:103710004068009049E000E00AE0B8790B2844D105
:103720003570A020F08020680168406800903CE07F
:10373000B8790B2839D1FDF7CBFE4FF4805901221F
:1037400049464046FEF797FA4FF4006A0122514677
:103750004046FEF790FA01E012E01CE00A20FEF776
:103760006FF9002251464046FEF785FA002249468D
:103770004046FEF780FA206801684068009014E037
:10378000B8790B2811D13570C020F080206801680D
:103790004068009009E0B8790B2806D13570D02038
:1037A000F08020680168406800907878012813D183
:1037B000B87801281ED0022828D003280ED004286B
:1037C0000AD1B8790B2807D135704FF48270F08098
:1037D0002068016840680090BDE8F88FB8790B2830
:1037E000FAD1357040F20310F0802068016840681B
:1037F0000090F1E7B8790B28EED1357040F2011056
:10380000F0802068016840680090E5E7B8790B28EF
:10381000E2D135704FF48170F08020680168406813
:103820000090D9E714040140000C01404B00002037
:1038300054000020B80100200A0000202DE9F041CA
:1038400004460D46984694F83900012804D02228F1
:1038500002D00220BDE8F0819DB192B194F8380009
:10386000012810D0012684F838600027E76394F817
:103870003900222809D0122084F83900A284E28479
:103880002EE00120E6E70220E4E7322084F8390048
:10389000F4E7401EE084A068B0F5805F08D043469E
:1038A00000228021204601F03EFDA8B10320D1E78F
:1038B000434600228021204601F035FD08B1032057
:1038C000C8E728882168C0F308004860206908B16B
:1038D0006D1C05E0AD1C03E0216815F8010B486084
:1038E000E08C0028D5D1434600224021204601F03B
:1038F0001AFD08B10320ADE794F83900322805D04D
:1039000084F8396084F838700020A3E7222084F816
:103910003900F7E77047FEE710B5C0F30313002145
:103920000B4A545C9C4203D0491CC9B21029F8D3FD
:1039300000F00F030020145C9C4203D0401CC0B276
:103940001028F8D3105C515C00EB011010BD000092
:10395000E45F000810B5C0F3031300210B4A545C68
:103960009C4203D0491CC9B21029F8D300F00F03C0
:103970000020145C9C4203D0401CC0B21028F8D335
:10398000515C105C090501EB004010BDE45F0008CC
:1039900010B5C0F3031300210B4A545C9C4203D0C2
:1039A000491CC9B21029F8D300F00F030020145CA1
:1039B0009C4203D0401CC0B21028F8D3515C105C6C
:1039C000090301EB002010BDE45F000810B5C0F34F
:1039D000031300210B4A545C9C4203D0491CC9B21A
:1039E0001029F8D300F00F030020145C9C4203D090
:1039F000401CC0B21028F8D3515C105C090701EBE1
:103A0000006010BDE45F000810B50E4C00221021CC
:103A10002046FEF730F900F04BF801222021204625
:103A2000FEF729F900F044F8002220212046FEF795
:103A300022F900F03DF820460122BDE81040102197
:103A4000FEF719B9000C014010B5044600F036F835
:103A500000F064F9204600F02FF900F097F90446D1
:103A600000F07CF9204610BD104B42689A4208D8FD
:103A70005000B1FBF0F0C0F30B01042900D2042088
:103A80007047806858B102EBC20000EB0210B1FB36
:103A9000F0F040F440400105F2D10120704702EB04
:103AA0004200B1FBF0F040F40040F4E7A0860100D2
:103AB0000020401CC0B20A28FBD3704700B585B077
:103AC0000E48816941F008018161806900F00800B9
:103AD00000900B48416821F0E06141F08071416045
:103AE00030200190112002900120049001A9054886
:103AF000FDF7B2FF00F032F905B000BD0010024042
:103B000000000140000C014001684A69D24352059F
:103B10000CD44A6922F480624A6104213430416045
:103B20002021417000210170012070470020704762
:103B30002DE9FC4100240F4D4FF6FF7640F20F3780
:103B4000285D0190032301AA39460B480096FEF731
:103B5000F5F840B109A001F051FC641CE4B2032C5B
:103B6000EED3BDE8FC810AA001F048FC0520FDF77A
:103B700067FFF2E7480000207C0400206932635FA1
:103B80007478206973206572726F72200A000000D9
:103B90004932432073656E642064617461206973E7
:103BA000207375636365737364200A0070B50446FF
:103BB0000D4616462068016841F480710160334665
:103BC00000224FF00111204600F02BF908B103202C
:103BD00070BD2069B0F5804F11D005F44070F02120
:103BE00041EAD0102168086132461249204600F0AF
:103BF0006FF958B1A06B042806D0032070BD21686E
:103C000005F0FE00086104E0012070BD2168E8B203
:103C1000086108493246891F204600F059F930B141
:103C2000A06B042801D0032070BD012070BD0020CE
:103C300070BD00000800010010B50C4C01221021DD
:103C40002046FEF718F8FFF733FF01222021204617
:103C5000FEF711F8FFF72CFF002220212046FEF787
:103C60000AF8BDE81040FFF723BF0000000C014038
:103C700070B5002400250F4E6006040E012220219D
:103C80003046FDF7F8FFFFF713FF10213046FDF730
:103C9000EBFF08B1641CE4B2002220213046FDF79E
:103CA000EAFFFFF705FF6D1CEDB2082DE4D32046B7
:103CB00070BD0000000C014070B505460024164E92
:103CC000280605D5012210213046FDF7D4FF04E077
:103CD000002210213046FDF7CEFFFFF7E9FE01225A
:103CE00020213046FDF7C7FFFFF7E2FE002220212A
:103CF0003046FDF7C0FF072C04D1012210213046C9
:103D0000FDF7B9FF6806050EFFF7D2FE641CE4B2AA
:103D1000082CD5D370BD0000000C014010B50E4C2E
:103D2000012210212046FDF7A6FF01222021204676
:103D3000FDF7A1FFFFF7BCFE002210212046FDF792
:103D40009AFFFFF7B5FE002220212046FDF793FFE2
:103D5000BDE81040FFF7ACBE000C014010B50A4CA6
:103D6000002210212046FDF786FF01222021204657
:103D7000FDF781FFFFF79CFE20460122BDE81040C1
:103D80001021FDF778BF0000000C014070B5104D08
:103D9000012210212846FDF76EFFFFF789FE012260
:103DA00020212846FDF767FFFFF782FE10212846F5
:103DB000FDF75AFF08B1012400E000240022202171
:103DC0002846FDF758FFFFF773FE204670BD000040
:103DD000000C014070B504460D46FDF753FF064642
:103DE00018E02046FFF790FE08B1012070BD681C66
:103DF00010D025B1FDF746FF801BA8420AD9343404
:103E0000606840F02000606020206070002020701A
:103E1000032070BD20684069C0434007E1D4002002
:103E200070BD2DE9F05F04460E4693461D46FDF732
:103E300029FF07464FF000094FF0200AC6F3074854
:103E4000BBF1000F0FD02FE0681C0CD025B1FDF79F
:103E500019FFC01BA84206D984F835A084F8349015
:103E60000320BDE8F09FB8F1010F07D020688069FA
:103E700026EA00000004000C20D0E5E72068406935
:103E800026EA00000004000C18D0DDE7681C0BD007
:103E900025B1FDF7F7FEC01BA84205D984F835A06F
:103EA00084F834900320DCE7B8F1010F08D02068D3
:103EB000806926EA00000004000CE7D00020D0E76B
:103EC0002068406926EA00000004000CDED0F5E717
:103ED0002DE9F04704460E461546FDF7D3FE07468A
:103EE0004FF000094FF0200AC6F3074825E020688C
:103EF0004069C043400512D42068016841F4007154
:103F000001602068416921F4806141610420A0635F
:103F100084F835A084F834900120BDE8F087681C4F
:103F20000BD025B1FDF7AEFEC01BA84205D984F821
:103F300035A084F834900320EFE7B8F1010F08D0E2
:103F40002068806926EA00000004000CCFD1002020
:103F5000E3E72068406926EA00000004000CF6D080
:103F6000C5E770B504460D46FDF78CFE064618E021
:103F70002046FFF7C9FD08B1012070BD681C10D0B4
:103F800025B1FDF77FFE801BA8420AD93434606852
:103F900040F020006060202060700020207003202E
:103FA00070BD20684069C0430006E1D4002070BDA8
:103FB00010B50C4C02212046FDF756FE38B91420EE
:103FC000FDF73EFD02212046FDF74EFE08B101201F
:103FD00010BD02212046FDF747FE0028F9D0002041
:103FE00010BD0000000C014010B50C4C0121204612
:103FF000FDF73AFE38B90A20FDF722FD01212046DF
:10400000FDF732FE08B1012010BD01212046FDF769
:104010002BFE0028F9D0002010BD0000000C01404C
:1040200070B586B01648816941F0080181618169E7
:1040300001F008010191816941F008018161806905
:1040400000F0080001900220029000250395012451
:1040500004940C4E02A93046FDF7FEFCA00202902B
:104060000395049402A93046FDF7F6FC02940395EB
:10407000049402A93046FDF7EFFC06B070BD0000C5
:1040800000100240000C01407CB510A003C8CDE92F
:104090000001FDF7EBFB0F4C012807D10020207039
:1040A00001220C212046FDF725FC257820788DF88B
:1040B0000400294608A001F0A1F90C230622694654
:1040C0000B48FFF7BBFB28467CBD0000A1040000A5
:1040D000000B00007C0300204C616D70204272696F
:1040E0006768746E657373206973202564200A0005
:1040F000B80100202DE9F0470446FDF7B7FB244E38
:104100004FF400674FF48058012824D1DFF88490E1
:10411000002089F80000204D2C7001220C21284637
:10412000FDF71DFC6420FDF78BFC01220C214846A5
:10413000FDF7E0FB044699F80000297888420AD090
:10414000002239463046FDF796FD002241463046B2
:10415000FDF791FDFEE7012C18D1002239463046CB
:10416000FDF789FD002241463046FDF784FD3220EF
:10417000FDF766FC012239463046FDF77CFD4146DD
:104180003046BDE8F0470122FDF775BDBDE8F08778
:10419000000C01407C0300207C020020F0B585B0BB
:1041A0001C48816941F008018161816901F00801C1
:1041B0000091816941F008018161806900F0080087
:1041C0000090154F4FF40064002221463846FDF759
:1041D00052FD6500002229463846FDF74CFD01944A
:1041E000012402940326049601A93846FDF734FC05
:1041F00001950294049601A93846FDF72DFC200292
:10420000019000200290039401A93846FDF724FC98
:1042100005B0F0BD00100240000C01400A480949F9
:1042200001600A4941600021816040F20F32C260A2
:104230004FF4804202614161FF228261C1610162EB
:10424000FDF726BD005400407C040020801A0600C3
:1042500010B5012211462520FDF78CFEBDE8104067
:104260002520FDF77BBE000008B50E48816941F0AE
:1042700004018161806900F0040000900B480A4944
:1042800001604FF4E131416000218160C160016152
:104290000C2242618161C161FFF708F9BDE8084065
:1042A000FFF7D6BF0010024000380140B8010020DF
:1042B000FEE700002DE9F04120480168CCB201681A
:1042C000C1F307250168C1F307460068070EFDF733
:1042D000CDFA01282FD10020194B1A4900221A5477
:1042E0000A54401CC0B20428F9D30F704E708D7070
:1042F000CC70042205211348FDF731FB0446C82089
:10430000FDF79EFB012C04D0BDE8F0410EA001F0AA
:1043100075B8134D4FF40064002221462846FDF77E
:10432000AAFC0A20FDF78CFB21462846BDE8F04197
:104330000122FDF7A0BCBDE8F08100003C00002098
:104340007C0300207C020020656570726F6D206325
:104350006865636B206572726F72200A000000004E
:10436000000C014070470907090E002806DA00F02A
:104370000F0000F1E02080F8141D704700F1E020EC
:1043800080F80014704700007CB513A003C8CDE985
:104390000001FDF76BFA124C012808D1022210210E
:1043A0002046FDF7A7FA6078217840EA0125607879
:1043B0008DF8040022788DF803200A494A7088702D
:1043C000294609A001F01AF80C23062269460C4878
:1043D000FFF734FA7CBD0000A1010000000B0000D3
:1043E0007C030020480000204D6F746F72205370D2
:1043F000656564206973203A202564200A00000066
:10440000B801002010B5072204490548FEF716FC44
:10441000BDE810400248FEF71EBB0000540100201A
:10442000B8040020C3680268816B002B0CD0D268EE
:104430000A80816B891C8163C18F491E89B2C18743
:10444000002906D100F018B8D2684B1C83630A70AB
:10445000F2E7704706490978002905D00068054948
:10446000884201D1406908B101207047002070479F
:10447000080000200038004038B5044600200090B5
:10448000A06AB0F5005F2CD10A230022012120464A
:1044900000F0FAF818B1606D40F010006065206817
:1044A000C0680090BDF8000001220A231146204692
:1044B00000F0EAF818B1606D40F010006065206807
:1044C0008068C043C0060CD494F8510022281BD148
:1044D0002046FFF7BFFF012816D021686FF01000BB
:1044E00088602068416821F040014160206841688F
:1044F000C94309062BD5416821F02001416060685D
:10450000B0F5827F0FD01AE0606D40F00200606568
:104510002068016821F4005101602068016841F4BD
:1045200000510160DDE7A068B0F5004F02D0B0F5A2
:10453000806F04D12068016821F040010160616D45
:10454000012029B184F851002046FEF783FA38BDD6
:1045500094F85110322905D084F851002046FEF716
:10456000C9FB38BD84F851002046FEF75AFC38BD1F
:10457000C3680268816B002B0BD0D2680A80816B04
:10458000891C8163C18F491E89B2C187012905D069
:104590000DE0D2684B1C83630A70F3E7816AB1F5C2
:1045A000005F04D101680A6842F480520A60C18F3A
:1045B000002901D1FFF760BF704738B504460A23D0
:1045C00000220221204600F05FF818B1606D40F033
:1045D000100060652068416821F08001416020681A
:1045E0004168C94349061CD5416821F0200141605A
:1045F0000A2301228021204600F046F818B1606DA0
:1046000040F010006065A06818B92068C168806833
:104610000090616D012029B184F851002046FEF719
:1046200019FA38BD94F85110322905D084F8510098
:104630002046FEF7F5FB38BD84F851002046FEF712
:10464000F0FB38BDC3680268016B002B0FD00988EE
:10465000D160016B891C0163C18E491E89B2C1867C
:10466000002910D1816AB1F5005F05D009E04B1C2B
:1046700003630978D160EFE701680A6842F4805269
:104680000A60FFF79ABF70472DE9F05F04460F46B6
:1046900093461D46FDF7F6FA06464FF000084FF424
:1046A000005A4FF00109BBF1000F26D050E0681C02
:1046B00023D025B1FDF7E6FA801BA8421DD920685A
:1046C000416821F0E00141602068016821F040016B
:1046D0000160A06A504509D12068016821F40051A9
:1046E00001602068016841F40051016084F8519034
:1046F00084F850800320BDE8F09F2068806837EA86
:104700000000D4D129E0681C22D025B1FDF7BAFA07
:10471000801BA8421CD92068416821F0E00141605B
:104720002068016821F040010160A06A504509D16C
:104730002068016821F4005101602068016841F49B
:104740000051016084F8519084F850800320D2E732
:104750002068806837EA0000D5D00020CBE7000051
:1047600010B50F4C0D48206000206060A060E06034
:10477000206160614FF40071A1612021E16120623C
:104780006062A0620720E0622046FEF7BFF9206861
:10479000016841F04001016010BD0000003001409F
:1047A000B804002070B50E464FF0FF35124A51692B
:1047B0000C1A12480178002905D06CB1104B1878FA
:1047C00001280BD010E015210170FCF7A7FD04466D
:1047D0000CA000F013FE07E0002505E00020187093
:1047E000002450619060906105FB04F03146BDE803
:1047F000704000F015B80000280000201C000020C8
:104800001D000020706F776572206F6E20666972E0
:1048100073742072756E2030786230200A000000B8
:104820002DE9F05F044641F27075DFF80CA14348B2
:10483000DFF80C81434F444E4FF00A0B4FF0010953
:10484000002C18DA87F8019000220821FDF713FAEE
:1048500098F800006442012802D19AF8000008B1DB
:10486000346118E088F800B03461BC60FCF756FD94
:104870004042B0610FE00021797001220821FDF76C
:10488000FAF9F46098F80000012802D19AF80000C3
:10489000E8B3F460BC60002C4BD02A4CDFF8ACA02D
:1048A0004FF4FA680C344FF4005BA6F8028070886D
:1048B000786087F800902068416A7A681144416303
:1048C000204800210C30FEF759FC012200215046FF
:1048D00000F0F0FA012259461D48FDF7CCF96D1E93
:1048E000ADB2E2D2FCF706FD70807088786087F880
:1048F00000902068416A7A681144416311480021A0
:104900000C30FEF73BFC01220021504600E008E09D
:1049100000F0D0FA5946BDE8F05F01220C48FDF7DF
:10492000AAB988F800B0F460FCF7F8FCB061BC608C
:10493000B1E7BDE8F09F00001D0000200008014025
:104940001C0000203402002028000020002C014020
:10495000000C0140F0B585B02648816941F00401A2
:104960008161816901F004010091816941F00401D4
:104970008161816901F004010091816941F00801C0
:104980008161816901F008010091816941F00801AC
:104990008161806900F0080000904FF48070019000
:1049A0000220029003240494134E01A93046FDF71F
:1049B00053F80821019101250295049401A930467C
:1049C000FDF74AF86E030196029504940B4F01A976
:1049D0003846FDF741F8AA0301920295049401A913
:1049E0003846FDF739F8002231463846FDF743F9DD
:1049F00005B0F0BD0010024000080140000C01406D
:104A00002DE9F0410E4690461F464FF0FF35FEF768
:104A1000A1FF04463046FEF7BBFF06464046FEF7C0
:104A20007BFFA119164C0844E06116480178002666
:104A300041B115480178012911D06069E169411A35
:104A4000A9B115E005210170FCF768FC6061A1685F
:104A500062691144E269891AA661A060F0E70670F4
:104A6000A660A6616661A068E169411AE8E70025D1
:104A700005FB01F03946BDE8F041FFF7D1BE00006B
:104A8000280000201C0000201D00002030B595B03B
:104A90002A49294D0D600320486000248C604FF6A0
:104AA000FF70C8600C614C610846FEF72BFAA81431
:104AB000119011A92148FEF770FA2048FEF740FB3B
:104AC0000F9410940FA91D48FEF7F4F90894099467
:104AD0000A940B940C9468140D900E9408A917482E
:104AE000FEF7C7F930200190154840880290022057
:104AF000039008200490059406940794002201A9CD
:104B00000E48FEF7F3FAFFF725FF00210B48FEF7EA
:104B10009BFB00210948FEF76BFB0022114628464B
:104B200000F0C8F9022200211B20FDF723FA1B2008
:104B3000FDF714FA15B030BD002C014040020020F2
:104B4000280000202DE9F0413A48012141703A49FE
:104B500000240C6039490C60446039480460FCF75B
:104B600085FE012813D100203649374A0C541454CD
:104B7000401CC0B20C28F9D30A2200213248FCF7AD
:104B8000EEFE05460A20FCF75BFFFCF7F3FB2F4C1B
:104B90004FF40066012D35D0002231462046FDF746
:104BA0006AF8A514002229462046FDF764F84FF460
:104BB000FA773846FCF744FF012231462046FDF7DC
:104BC0005AF8012229462046FDF755F83846FCF7E9
:104BD00037FF002231462046FDF74DF800222946D6
:104BE0002046FDF748F83846FCF72AFF01223146F7
:104BF0002046FDF740F829462046BDE8F041012255
:104C0000FDF739B8002231462046FDF734F832204E
:104C1000FCF716FF012231462046FDF72CF8322022
:104C2000FCF70EFF31462046BDE8F0410022FDF7BB
:104C300022B800001C000020400000203C000020A2
:104C4000180000207C0300207C020020000C0140A2
:104C500010B5FDF729F9BDE81040FEF706B930B5EB
:104C60008FB00120059000040690002407940225CF
:104C70000C950D904FF4E0100E9005A8FDF796FBF3
:104C80000F20009001950294680203900494022181
:104C90006846FDF7A1F9FDF7FBFA4FF47A71B0FB16
:104CA000F1F0FEF7CEF80420FEF7BCF80022114622
:104CB000501EFDF75FF90FB030BD00000D480168D0
:104CC00041F00101016041680B4A114041600168F7
:104CD0000A4A11400160016821F4802101604168A5
:104CE00021F4FE0141604FF41F0181600449C003BB
:104CF00008607047001002400000FFF8FFFFF6FE5A
:104D000008ED00E02DE9F041414E3068C168C9432B
:104D100089073DD46FF0020707613068416A3D4C56
:104D20006288114441636078401CC0B26070022800
:104D30002ED100256570A6F10C014878012829D0F4
:104D4000E068A269904203D0E068A269904200DA6C
:104D50000D700878DFF8C08030B3012818D198F8BA
:104D600000000A2842D02D480278012A43D0A069C9
:104D7000401CA0614878C0B3A068401EA060606974
:104D8000401E60618868A269904201D10D708D60FB
:104D9000BDE8F0812069A269904203D02069A26930
:104DA0009042D6DA0D70D4E7A56100211848FEF7CD
:104DB0004BFA002211461A4800F07CF8306807616F
:104DC00000224FF400511748FCF755FF01202070D6
:104DD0001549087098F800001528D9D1642088F882
:104DE0000000A5616561A560D2E709E0142088F89C
:104DF0000000A561BEE70570A5616561A560B9E722
:104E0000A068401CA0606069401C6061BAE70000B7
:104E100040020020280000201C0000201D0000206F
:104E2000002C0140000C01404D0000202DE9F04114
:104E300002681B4D1B4E1C4FDFF870C01C4B4FF01F
:104E40008048A84209D0984207D0404505D0B042DA
:104E500003D0B84201D0604503D122F070044A6803
:104E60002243A84209D0984207D0404505D0B0421D
:104E700003D0B84201D0604503D122F44074CA681F
:104E8000224302608A68C2620A688262A84201D034
:104E9000984201D10969016301214161BDE8F081B6
:104EA000002C01400004004000080040000C0040BD
:104EB0000034014010B501238B40046A9C43046216
:104EC000036A8A401343036210BD10B5846824F45A
:104ED0007F4442EA03220A432243826010BD826873
:104EE00022F070020A4342F007018160704700001F
:104EF000F0B5026A22F001020262026A4368846924
:104F000024F0700424F003050C682C4322F0020501
:104F10008A682A430E4E0F4FB04201D0B84205D1E5
:104F200022F00805CA682A4322F00402B04201D0E8
:104F3000B84207D123F4807323F400734D691D43F5
:104F40008B692B4343608461496841630262F0BD11
:104F5000002C014000340140F0B5026A22F010023A
:104F60000262036A4268846924F4E04424F44074D1
:104F70000D6844EA052423F020038D6843EA0513F5
:104F8000104D114EA84201D0B04206D123F080034B
:104F9000CF6843EA071323F04003A84201D0B04290
:104FA00009D122F4806222F400624D6942EA85024E
:104FB0008D6942EA850242608461496881630362C7
:104FC000F0BD0000002C014000340140F0B5026A41
:104FD00022F480720262026A4368C46924F0700499
:104FE00024F003050C682C4322F400728D6842EA19
:104FF0000522104D104EA84201D0B04206D122F435
:105000000062CF6842EA072222F48062A84201D0FF
:10501000B04209D123F4805323F400534D6943EA8D
:1050200005138D6943EA05134360C4614968C16390
:105030000262F0BD002C01400034014030B5026A2C
:1050400022F480520262046A4268C36923F4E04396
:1050500023F440730D6843EA052324F400548D685B
:1050600044EA0534084DA84202D0084DA84204D1B4
:1050700022F480424D6942EA85124260C361496868
:105080000164046230BD0000002C01400034014086
:1050900010B5036A046A24F001040462846924F0F0
:1050A000F00444EA021423F00A020A438461026213
:1050B00010BD10B5036A23F0100303628469036A0C
:1050C00024F4704444EA023223F0A00343EA0111BD
:1050D0008261016210BD10B50168CA6822F0400209
:1050E000CA6090F83910322906D0012180F83910B1
:1050F000FEF710FC002010BD222180F83910F7E7E0
:1051000010B590F83910222903D0322901D002209D
:1051100010BD8168B1F5805F11D0016919B30168D4
:10512000496801F07F03816A4A1C82620B70C18D5D
:10513000491E0904090CC1851CD0002010BD816ADC
:1051400002693AB102685268D2B20A80816A491C87
:105150008162ECE702685268C2F308020A80816A41
:10516000891C8162E3E701684A68816A4B1C83629B
:105170000A70DCE70168CA6822F02002CA6090F871
:105180003910322910D00168CA6822F48072CA60CE
:1051900001684A6922F001024A61012180F8391050
:1051A000FEF718FA002010BD122180F83910F7E739
:1051B0002DE9F041044620680169E26821F440517C
:1051C00011430161A16820690143606901432068BE
:1051D000C26841F20C639A430A43C2602068416985
:1051E000A26921F44071114341613349206864256B
:1051F0003226884230D1FDF77BF800EBC00101EB8D
:10520000001061688900B0FBF1F0B0FBF5F7FDF725
:105210006FF800EBC00101EB001061688900B0FB82
:10522000F1F8FDF765F800EBC00101EB00106168D3
:105230008900B0FBF1F0B0FBF5F06FF018014843C6
:1052400008EB800006EB0010B0FBF5F0216867F377
:105250001F108860BDE8F081FDF734F800EBC00155
:1052600001EB001061688900B0FBF1F0B0FBF5F7CD
:10527000FDF728F800EBC00101EB00106168890020
:10528000B0FBF1F8FDF71EF800EBC00101EB0010D8
:1052900061688900B0FBF1F0B0FBF5F06FF0180128
:1052A000484308EB800006EB0010B0FBF5F02168E6
:1052B00067F31F108860CDE70038014090F839107F
:1052C000122903D0322901D0022070478168B1F53C
:1052D000805F0CD0016A4A1C026202680978516042
:1052E000C18C491E0904090CC18410D019E0016A5F
:1052F00002680988C1F308015160016919B1016AA6
:10530000491C0162ECE7016A891C0162E8E7016857
:10531000CA6822F08002CA600068C16841F040019A
:10532000C160002070472DE9F04704460F469246C1
:105330001D46FCF7A7FC06464FF000084FF0010998
:10534000BAF1000F23D04AE0681C20D025B1FCF749
:1053500099FC801BA8421AD92068C16821F08001FD
:10536000C1602068C16821F02001C1602068C16867
:1053700021F48071C1602068416921F0010141611F
:1053800084F8399084F838800320BDE8F0872068DD
:10539000006837EA0000D7D126E0681C1FD025B18D
:1053A000FCF770FC801BA84219D92068C16821F065
:1053B0008001C1602068C16821F02001C1602068BF
:1053C000C16821F48071C1602068416921F0010148
:1053D000416184F8399084F838800320D5E720684B
:1053E000006837EA0000D8D00020CEE70148FDF77A
:1053F000FEBF0000B8010020FEE700000FB4054B1F
:1054000010B503A9044A029800F0CAF810BC5DF870
:1054100014FB0000D15C00085000002002E008C826
:10542000121F08C1002AFAD170477047002001E01E
:1054300001C1121F002AFBD1704700002DE9FF5F58
:10544000DDE90220010DDDF838B0024318D044F642
:105450001050A1F2FF3141430D140F98012820D0C4
:10546000A5EB0B00401C5FEA000A4FF00004474E1A
:10547000DFF81C91A046504616D5CAF1000728E077
:105480000F98012443A2012808D0002100980F9B07
:10549000C0E90021C0E90243BDE8FF9F6FEA0B01AC
:1054A000F4E7CBF10000DEE7074612E0F80707D08B
:1054B0002246334640464946FBF758F8804689461F
:1054C0002246334610461946FBF750F804460E466E
:1054D0007F10002FEAD1DDE90201BAF1000F424648
:1054E0004B4602DAFBF742F801E0FBF7B1F804465D
:1054F0000E460022284BFBF733F903D84FF0FF305C
:10550000014607E00022254B20463146FAF787FF87
:10551000FBF70DF9102409E0002C0ADB0A22002316
:10552000FAF7B8FE019B30321A55641E50EA0102A8
:10553000F2D1641C019AC4F1110314440F9A012A98
:1055400003D0012208430DD10AE0084304D0002013
:105550004FF0110B0F9080E7A3EB0B056D1E0DE0D4
:105560005B4504DD4FF0000205F1010504E003DABC
:105570004FF00002A5F10105002AECD000980F9928
:10558000C0E90231C0E9004586E700000000244080
:105590000000F03F300000000000F0430000E03F5A
:1055A0002DE9FF4F95B09B468946064600250FE240
:1055B000252877D100242746F84A0121059400E0E8
:1055C000044316F8013F203B01FA03F01042F7D1E3
:1055D00030782A2811D06FF02F033078A0F13002F4
:1055E000092A16D8059A44F0020402EB820203EB62
:1055F00042021044761C0590EFE759F8042B0592FF
:10560000002A03DA504244F40054059044F00204A6
:10561000761C30782E2816D116F8010F44F00404B9
:105620002A280DD06FF02F023078A0F13003092B1B
:1056300009D807EB870302EB4303C718761CF3E78F
:1056400059F8047B761C30786C280FD006DC4C2887
:1056500017D068280DD06A2814D104E0742810D01F
:105660007A280FD10DE044F400140AE044F48014C9
:1056700001E044F440147278824202D104F58014AF
:10568000761C761C307866280BD013DC582877D02F
:1056900009DC002875D04528F6D04628F4D04728E4
:1056A0001AD19DE118E0632835D0642879D06528A7
:1056B00012D195E1702873D008DC6728F1D06928F1
:1056C0006FD06E280DD06F2806D1B5E073282CD08E
:1056D000752875D0782874D05A46179990476D1C54
:1056E00075E1C4F30250022809D003280DD0D9F87F
:1056F000001004280DD00D6009F1040967E1D9F804
:105700000010EA17C1E90052F6E7D9F800100D8041
:10571000F2E70D70F0E719F8041B8DF80010002077
:105720008DF80100EA46012003E059F804AB4FF080
:10573000FF3061074FF0000102D40DE008F10101D4
:105740008846B9420FDA8045F8DB1AF808100029BC
:10575000F4D108E008F1010188468142FADB1AF829
:1057600008100029F6D105985B46A0EB08072146F2
:105770003846179A00F094FA284400EB080507E031
:105780004DE029E10DE01AF8010B5A4617999047B0
:10579000B8F10108F7D25B4621463846179A13E163
:1057A00042E00A220092C4F302524FF0000A022A99
:1057B00008D059F804CB032A4FEAEC710AD00DE067
:1057C00029E02AE009F1070121F00702F2E802C10D
:1057D000914609E00FFA8CFC4FEAEC71042A03D1E0
:1057E0004FFA8CFC4FEAEC71002907DA0A460021D7
:1057F000DCF1000C61EB02012D2202E0220504D550
:105800002B228DF80420012203E0E20701D02022A0
:10581000F7E7904659E00A2102E010220DE010213E
:105820004FF0000A00910BE010224FF0000A44F004
:1058300004040827009203E008224FF0000A0092B7
:10584000C4F30252022A05D059F804CB0021032ADE
:1058500008D009E009F1070121F00702F2E802C1CE
:10586000914605E01FFA8CFC042A01D10CF0FF0CD4
:105870004FF00008220728D5702806D0009B83F03F
:10588000100353EA0A0305D00EE040228DF80420ED
:10589000012208E05CEA010206D030228DF80420E3
:1058A0008DF8050002229046009B83F0080353EA1E
:1058B0000A030AD15CEA010201D1620705D5302250
:1058C0008DF804204FF001087F1E582804D034A022
:1058D00003900EA802900DE036A0F9E7534660460B
:1058E000009AFAF7D7FC84460398825C0298401E1F
:1058F000029002705CEA0100F0D1029806A9081A31
:1059000000F1200A600702D524F4803400E001276A
:10591000574502DDA7EB0A0000E0002000EB0A017A
:10592000009005984144401A0590E00306D45B4678
:105930002146179A059800F0B3F90544002706E0C0
:1059400001A85A46C05D179990476D1C7F1C4745BA
:10595000F6DBE0030CD55B462146179A059800F06C
:105960009FF9054404E030205A46179990476D1C72
:105970000099481E00900029F5DC08E00298029981
:105980005A460078491C0291179990476D1CBAF14C
:105990000001AAF1010AF1DC65E10000092801001B
:1059A0003031323334353637383961626364656695
:1059B0000000000030313233343536373839414257
:1059C000434445460000000000F058F90544761CA9
:1059D000307800287FF4ECAD19B02846BDE8F08F90
:1059E000620700D4062709F1070222F0070CFCE841
:1059F0000223E14603F000485FEA080C02D00FF2F0
:105A0000702C0DE05FEA045C02D50FF2682C07E011
:105A10005FEAC47C02D00FF2602C01E0AFF2700CA0
:105A20004FF0FF3823F00043CDF850C065280CD06C
:105A300006DC452809D046281DD047283DD13DE049
:105A4000662818D067287ED138E00021112F01DBAD
:105A5000112000E0781CCDE9000106A90EA8FFF78F
:105A6000EDFCDDE90F010E9A03910021009207F190
:105A7000010A04914DE04FF000400097CDE901107C
:105A800006A90EA8FFF7DAFCDDE90F0203920E9BD0
:105A900011990022DDF80CA00093049211B9791C31
:105AA00000EB010AB7EB0A0004D4C0F1FF3007F1A4
:105AB000010A0490AAEB0700019044E0012F00DAEC
:105AC00001270021112F01DD112000E03846CDE92A
:105AD000000106A90EA8FFF7B1FCDDE90F010E9A3F
